:020000040800F2
:1000000000040020B9010008BB010008BB01000882
:10001000BB010008BB010008BB010008BB010008D0
:10002000BB010008BB010008BB01000899B900082A
:10003000BB010008BB010008BB010008ADBE000801
:10004000BB010008BB010008BB010008BB010008A0
:10005000BB010008BB010008CDBC0008F5BC0008CE
:100060001DBD000845BD00086DBD0008BB010008AE
:10007000BB010008BB01000889C90008BB010008DA
:1000800095BD0008BB010008BB010008BB010008CA
:10009000BB010008BB010008BB010008BB01000850
:1000A000BB010008BB0100081DC8000831C80008DA
:1000B000BB010008BB010008BB010008BB01000830
:1000C000BB010008F9BD0008BB010008BB01000826
:1000D000BB010008BB010008BB010008BB01000810
:1000E00072B6264880F30888254880F30988254899
:1000F00025490860022080F31488BFF36F8F03F056
:10010000A0FC0BF071FA4FF0553020491B4A914288
:100110003CBF41F8040BFAE71D49194A91423CBF24
:1001200041F8040BFAE71B491B4A1C4B9A423EBF9D
:1001300051F8040B42F8040BF8E700201849194A5B
:1001400091423CBF41F8040BFAE70BF007FB0BF0C0
:1001500003FB154C154DAC4203DA54F8041B8847D9
:10016000F9E708F085FF124C124DAC4203DA54F85F
:10017000041B8847F9E70BF0F0BA000000040020E8
:10018000000C00200000000808ED00E00000002046
:100190000004002084E70008000C0020A8110020C3
:1001A000A811002078310020E0000008E0000008DD
:1001B000E0000008E000000892E700F000F8FEE729
:1001C0002DE9F04FC1F80CD0C3689D46BDE8F08F13
:1001D000002383F311882846A04700200BF0A6FBDC
:1001E000FEE70BF0E7FA00DFFEE7000038B5124B40
:1001F00004461D682A6B1AB10023C2E9044338BDC6
:10020000182000F099F80246286378B100210B23EA
:1002100001209381C2E90401084B0949094DC2E953
:10022000011300231560C2E9044338BD4621064B83
:10023000064800F053F800BF000C0020ECDE05007B
:1002400034126DE60E33CDABBCE60008D4E60008F0
:1002500038B5194B1C68226B8AB113691749546968
:1002600003FB01F1164800FB0411A3FB003001332E
:1002700041EB0001C2E9043121F0004038BD1820F3
:1002800000F05AF80246206388B1012400250B23B0
:100290000A480C49C2E90445116001460A4D0B4C5D
:1002A00093810B4BC2E90154C2E9043138BD52219C
:1002B000084B094800F012F8000C00202DF45158AA
:1002C0002D7F954C0E33CDAB34126DE6ECDE050080
:1002D0002E7F954CBCE60008D4E60008144600B515
:1002E0001A460A4B0D461B6885B0DE6803464CB1C2
:1002F00007490191304607490294009500F03AF809
:1003000000F012F804490C46F3E700BF000C00208F
:1003100000E7000810E700080CE7000808B51346DE
:100320000022FFF7DBFF00BF062008B500F006FC47
:1003300001200BF0B3FC00BF024B0146186800F02F
:10034000EDBE00BF000C0020024B0146186800F013
:1003500065BF00BF000C00200CB400B583B004AB37
:1003600053F8042B019300F055F803B05DF804EB4B
:1003700002B070470EB400B5074A82B003AB014625
:10038000106853F8042B019300F044F802B05DF8B4
:1003900004EB03B0704700BF000C00209368013BE2
:1003A000002B936005DAD2F818C0634507DB0A29F1
:1003B00005D01368581C106008461970704700F08B
:1003C00063B900BF9BB1F8B5134406460F46541EEF
:1003D0005D1E01E0AC4208D03A46304614F8011FD9
:1003E000FFF7DCFF431CF5D1F8BD0020F8BD00206D
:1003F000704700BF936810B514461BB91846002318
:10040000636010BD00F08EF90023A36000236360D9
:1004100010BD00BF2DE9F04FA1B08B4691461C46A0
:10042000049018B1036A002B00F01381BBF80C3064
:10043000180740F18E80DBF81030002B00F0898027
:10044000002343F220020D9399F800300127824ED9
:100450000794ADF83920002B73D04D4603E015F812
:10046000013F002B7FD0252BF9D1B5EB090A7DD1B7
:100470002B78002B65D000234FF0FF320135CDE9FA
:10048000092308930B938DF863301E9306E02546ED
:10049000089B801B07FA00F0034308932C460522B3
:1004A00014F8011B304601F021FBA1460028EED1D3
:1004B000089BD90644BF20228DF863201A0748BF45
:1004C0002B22297848BF8DF863202A2964D1079A06
:1004D0001168043200290792C0F296800B91697866
:1004E0002E296FD05D4C0322204601F0FFFA38B16F
:1004F0004022089B001B8240134309F10109089325
:1005000019F8011B062256488DF8381001F0EEFA52
:1005100000287FD0534B002B69D007A900915A4681
:100520000498514B08A9AFF300800390039B01335B
:1005300007D00D9B039A13440D9399F80030002BBC
:100540008BD1BBF80C305B060AD40D9821B0BDE806
:10055000F08F5946049800F05FFF00283FF470AF19
:100560004FF0FF30F2E7B5EB090AEAD009F1FF38A6
:1005700005954546DDF8108001E0A2453ED92C46A0
:100580005A46404615F8011FFFF708FF02340130B4
:10059000A4EB0904F1D1D4E7A1F13002092A88BF04
:1005A000A9469DD80B9B00E00134217803EB83031F
:1005B00002EB4303A1F13002092AF5D92E29A14605
:1005C0000B938FD199F801102A292DD1079B09F19E
:1005D00002001A680433002A0793B8BF4FF0FF33B4
:1005E00099F8021009928146B8BF09937AE7079BF0
:1005F000073323F00703083307939AE70D99059D06
:1006000051442B780D9134E7494243F002030B919A
:10061000089364E707A900915A460498124B08A969
:1006200001F096F8039081E70023A1F13002092A36
:1006300009F1010909933FF655AF19F8011F03EBC2
:10064000830302EB4303A1F13002092AF5D9099390
:1006500048E700F0F9FBE9E640E7000848E7000852
:100660004CE7000800000000C50300088C4600B5F8
:1006700086461346034A714610685DF804EB6246ED
:10068000FFF7C8BE000C0020F8B506460D4614461C
:1006900010B1036A002B37D0A269A389A2601A07A0
:1006A00019D52369BBB122686169D31AEDB29942A9
:1006B0002F4620DD0133A1680139A160511C216062
:1006C000157062699A420DD0A389DB0701D50A2D06
:1006D00008D03846F8BD2146304600F09DFE38B9B6
:1006E0002369E0E72146304600F0B0FC0028F0D056
:1006F0004FF0FF37EDE72146304600F0A7FC002819
:10070000F6D101232268D6E700F09EFBC4E700BFC4
:1007100003460A46024908681946FFF7B5BF00BFFD
:10072000000C00209368002B00F0F0802DE9F04FC2
:10073000B1F90CC090461CF0080F81460C4683B0FE
:100740002BD00B694BB31CF00207D8F8006032D0F5
:100750004FF0000A5546D4F828B0216AAB4FC5B116
:10076000BD422B46524628BF3B464846D847002844
:1007700040F3C280D8F8083082441B1A2D1AC8F8FA
:100780000830002B00F0AE80D4F828B0216A002D8C
:10079000E6D1D6E900A50836E1E72146484600F053
:1007A0003BFE002840F0AD80B4F90CC0D8F80060E2
:1007B0001CF00207CCD11CF0010A63D15746236814
:1007C000A16818468B46002F58D01CF4007F00F01B
:1007D000B180B9420A4600F2DD801CF4906F2FD040
:1007E000216962695D1A02EB420202EBD2726B1C54
:1007F00052103B44934292BF93469B461A461CF4C8
:10080000806F00F0E6801146484600F087FC002823
:1008100000F0F5802A462169019000F05FFEA28970
:10082000019B22F4906242F08002A2815819C4F820
:1008300014B0ABEB05053A46BB462361A5602060CA
:100840003D4600275146019200F046FDA16823680D
:10085000019AA1EB0B011A44A1602260D8F808307C
:10086000AA445B1BC8F80830002B3BD02368A16862
:1008700018468B46B4F90CC0002FA6D1D6E900A7C4
:1008800008369EE73846BB463D46002D40D000283E
:1008900045D03A46D4E904C32068AA4228BF2A4674
:1008A0006045A16804D901EB030A524500F3828038
:1008B000934272DC5A464846216AD4F828C0E04781
:1008C000B0F1000A18DDB7EB0A070FD00120D8F805
:1008D0000830D344A3EB0A03A5EB0A05C8F8083097
:1008E000002BD2D1002003B0BDE8F08F214648464E
:1008F00000F0ACFB0028EAD0B4F90C3043F0400320
:10090000A3814FF0FF3003B0BDE8F08F00207047A7
:10091000756833460836002DFAD0D3F800B02A4661
:100920000A21584601F0E2F8002865D00130A0EB1A
:100930000B07AEE722699A4214D36569BD4211D80C
:100940006FF00043BB4228BF3B4693FBF5F3524692
:1009500005FB03F34846A56A216AA847051ECBDDBF
:100960007F1B7BE7B94228BF39460D4618465146E2
:100970002A4600F0B1FCA1682368491B2B44A16002
:1009800023600029ECD12146484600F05FFB002897
:10099000E6D0B1E7BB463A4652E75946019200F02D
:1009A0009BFC019AA36892469B1AA3602368134498
:1009B000236088E75946524600F08EFC23682146A2
:1009C00053444846236000F041FB00283FF47BAFCE
:1009D00092E7484600F0F8FD034600287FF426AF72
:1009E0004846216900F01AFC0C22B4F90C30C9F811
:1009F000002023F0800381E76A1C17464AE70C2297
:100A0000B4F90C30C9F8002078E700BF00FCFF7F84
:100A100038B5C46B0CB1002038BD8021054600F00C
:100A20007DFB0246E86330B1031F7C3243F8044F7C
:100A30009342FBD1EFE74FF0FF3038BD30B51F29AF
:100A4000054683B008D8C36B0C4653B153F8240055
:100A500043F8242003B030BD162303604FF0FF306D
:100A6000F8E78021019200F059FB019A0346E86300
:100A70000028F3D0011F00F17C05002041F8040F8D
:100A8000A942FBD1E2E700BF1F2938B505461ED8B1
:100A9000C26B0C466AB152F8213053B1012B06D01B
:100AA000591C10D00021204642F8241098470020FD
:100AB00038BD284601F0CCF8224601462846BDE85C
:100AC000384001F0B1B8162301202B6038BD162341
:100AD0004FF0FF302B6038BD1F292BD838B5C36BC2
:100AE0000C460546A3B153F8242003EB84034AB116
:100AF000511C0BD0012A07D0002520461D609047CD
:100B0000284638BD012038BD032038BD022038BD3D
:100B1000802100F003FB0346E86340B100201A1F68
:100B200003F17C0142F8040F8A42FBD1DBE74FF06E
:100B3000FF3038BD4FF0FF30704700BF38B5134B62
:100B40001F281D681DD8EA6B044662B152F8203098
:100B50004BB1012B05D0591C0FD0002142F82010B9
:100B60009847002038BD284601F072F82246014619
:100B70002846BDE8384001F057B8162301202B6005
:100B800038BD16234FF0FF302B6038BD000C00201D
:100B9000114B1F2870B51E6808D8F36B04460D462C
:100BA0004BB153F8240043F8245070BD1623336032
:100BB0004FF0FF3070BD8021304600F0AFFA0346A1
:100BC000F0630028F4D00021021F7C3042F8041F9B
:100BD0008242FBD1E5E700BF000C002038B50B4B8B
:100BE0001D68EC6B0CB1002038BD8021284600F058
:100BF00095FAE86338B1031F00F17C0243F8044F13
:100C00009342FBD1EFE74FF0FF3038BD000C0020DE
:100C100038B5174B1F281D6826D80446E86BA0B1CD
:100C200050F8242000EB84034AB1511C0BD0012A58
:100C300007D0002520461D609047284638BD01207A
:100C400038BD032038BD022038BD8021284600F081
:100C500065FAE86340B10021031F00F17C0243F80C
:100C6000041F9342FBD1DBE74FF0FF3038BD00BFDC
:100C7000000C002000207047024A0349034800F09E
:100C8000A9BB00BF500C00204D100008040C002030
:100C90000C4B416810B59942044601D000F0D6F9DA
:100CA000A168094B994202D0204600F0CFF9E168D3
:100CB000064B994204D02046BDE8104000F0C6B96A
:100CC00010BD00BFA81100201012002078120020D3
:100CD000002070472DE9F84300250423294C2A49B8
:100CE0000822C4F8381104F15C002946DFF89C9012
:100CF000DFF89C80274F284EC4E90335C4E900552E
:100D0000C4E90555A560656600F0C6F8234B0822C6
:100D1000294604F1C4006367C4E90849C4E90A87A5
:100D2000C4E91A55C4E91E5526632567C4F8CC509A
:100D3000C4F8805000F0B0F8194B2946C4F8DC30F4
:100D4000082204F1680304F59670C4F88830C4E9F9
:100D50002398C4E92576C4E93455C4E93855C4F864
:100D6000D850C4F83451C4F8E85000F095F804F1B4
:100D7000D003C4E93D98C4E93F76C4F8F030BDE83B
:100D8000F88300BFA8110020790C0008851B00081B
:100D9000AD1B0008ED1B0008111C00080900010034
:100DA00012000200F8B5254B0646D3F83831002B67
:100DB0003CD0234FD7E90134013B04D51DE05A1C38
:100DC00004F1680419D0B4F90C50013B002DF6D1A0
:100DD0001C4B08222946C4E90155C4E90455E360C7
:100DE00065662560A56104F15C0000F055F8C4E972
:100DF0000D55C4E912552046F8BD3D680DB12F468A
:100E0000D8E74FF4D671304600F088F9044680B137
:100E100004230560294625460C304FF4D072A060AB
:100E2000636000F039F83C602F46C3E7FFF752FFDC
:100E3000BFE70C2338603360DDE700BFA811002056
:100E4000500C00200100FFFF036A03B17047044B00
:100E5000044AD3F838310262002BF7D13AE700BFD9
:100E6000A8110020910C0008704700BF704700BF18
:100E70000020024A024900F0ADBA00BF500C002029
:100E8000750C00080020024A024900F0A3BA00BF16
:100E9000500C0020D10C000870B5860747D0541EB6
:100EA000002A3ED00346CAB201E0013C39D303F820
:100EB000012B9D07F9D1032C2CD9CDB205EB0525CB
:100EC0000F2C1A4605EB054534D9A4F1100C2CF073
:100ED0000F0603F1100EB6444FEA1C1CC2E9005580
:100EE000C2E9025510327245F8D10CF1010214F03A
:100EF0000C0F03EB021204F00F0C13D0ACF104033F
:100F000023F003030433134442F8045B9342FBD100
:100F10000CF003042CB1C9B21C4403F8011BA3421A
:100F2000FBD170BD64461346002CF4D1F9E70346AB
:100F30001446C0E7A446E1E7F8B5B1F90C300C4619
:100F40001E07074639D44A68002A53DDE56A002D9A
:100F500031D000223E683A6013F48052216A55D1A4
:100F600001233846A847451C024663D0B4F90C302B
:100F7000E56A216A580705D56368D21A636B0BB11D
:100F8000236CD21A00233846A847421C40D00022C6
:100F9000236962602360A389DB0400D56065616B0F
:100FA0003E6041B104F14403994202D0384600F05A
:100FB00035F9002363630020F8BD0E69002EFAD0D6
:100FC0009B0718BF00230D6808BF4B690E60AD1B5F
:100FD0008B600CE02B463246D4F828C03846216A94
:100FE000E047B0F1000CA5EB0C05664406DD002DD2
:100FF000F0DCE0E70A6C002AA8DCDCE7B4F90C308E
:1010000043F040034FF0FF30A381F8BD626DB1E7BC
:101010003968B4F90C301D29F2D80B4ACA40D507FB
:10102000EED50022626022692260DA04B7D5002979
:10103000B4D0B4E73B68002B98D01D2B01D0162B01
:10104000DCD13E60B7E700BF010040200B69B3B1BF
:1010500010B5044682B008B1036A5BB1B1F90C3037
:1010600013B9002002B010BD204602B0BDE8104008
:10107000FFF762BF0191FFF7E7FE0199EEE700205D
:10108000704700BFB8B138B50D4A0369044615680A
:101090002BB10DB12B6A53B1B4F90C300BB9002050
:1010A00038BD21462846BDE83840FFF745BF2846F1
:1010B000FFF7CAFEF0E7034A0349044800F08AB983
:1010C000000C0020500C00204D100008040C0020E3
:1010D00070B5114E054633680C46BBB12146284613
:1010E0000AF0BCFD431C01460CD0C41C24F00304D0
:1010F000A04205D02846611A0AF0B0FD013001D0A7
:10110000204670BD4FF0FF34204670BD19460AF0EE
:10111000A5FD3060E2E700BFE41200202DE9F843AE
:10112000CD1C25F0030508350C2D38BF0C25002DEE
:10113000064618DBA94216D8DFF8DC8000F04AFC2E
:10114000D8F80420A2B1144603E0636822467BB1BC
:101150001C4623685B1BF8D40B2B1FD89442636892
:1011600054D053600CE00C2333600020BDE8F883BA
:1011700029463046FFF7ACFF431C044619D00560F2
:10118000304600F029FC04F10B00231D20F007007D
:10119000C21A1CBF1B1AA350BDE8F8836119944200
:1011A000256014BF5160C8F80410635163684B6038
:1011B000E6E7D8F804701FB33C467F68002FFBD1E8
:1011C00023683946304604EB03090AF047FD8145A0
:1011D00016D123683046ED1A2946FFF779FF013012
:1011E0000ED02368D8F804202B442360536883B1C1
:1011F000A34203D01A465B689C42FBD10023B0E7B0
:101200000C233046336000F0E7FBAEE7C8F804304B
:10121000B6E7C8F80470B3E7E4120020002950D004
:1012200038B551F8043C0C1F002BB8BFE418054634
:1012300000F0D0FB274A13682BB1A3420CD92168D8
:10124000601883422CD0284663601460BDE83840A3
:1012500000F0C2BBA3420FD81A465B68002BF9D13D
:1012600011685018844217D02CD36360546028460C
:10127000BDE8384000F0B0BB11685018A04214D04F
:1012800020D8216860188342EFD118685B68084451
:10129000C4E900035460EAE723680B441360E6E7FF
:1012A00018685B6808442060CDE720680144501846
:1012B00083421160DBD1D3E900040144C2E9001488
:1012C000D5E770470C2328462B60BDE8384000F076
:1012D00083BB00BFE812002088420ED98B188342DE
:1012E0000BD900EB020C002A6DD0624613F801CD39
:1012F000994202F801CDF9D170470F2A0FD8034661
:1013000002F1FF3C002A5ED00CF1010C013B8C4441
:1013100011F8012B614503F8012FF9D1704740EA1C
:1013200001039B0750D1A2F1100370B501F1200C0D
:1013300023F00F0501F1100E00F11004AC441B095D
:101340005EF8105C0EF1100E44F8105C5EF81C5C48
:10135000103444F81C5C5EF8185C44F8185C5EF8C5
:10136000145CE64544F8145CEAD1013312F00C0F2A
:1013700001EB031102F00F0400EB031328D08E469B
:10138000043C24F003064FEA940C1E441C1F5EF834
:10139000045B44F8045FB442F9D10CF1010402F09B
:1013A000030203EB840301EB840102F1FF3C4AB129
:1013B0000CF1010C013B8C4411F8012B614503F841
:1013C000012FF9D170BD7047034602F1FF3C9BE746
:1013D0002246EAE72DE9F8434FF0000980460F4620
:1013E0001646D6E90154013D10D4A389012B08D932
:1013F000B4F90E30013304D021464046B84749EADB
:101400000009013D6B1C04F16804EED13668002E22
:10141000E7D14846BDE8F88338B52F4B05461B6831
:101420000C4613B11A6A002A4BD0B4F90C301807D5
:101430001CD5226922B313F0010107D00020616995
:10144000A0604942A1613AB1002038BD980758BF59
:101450006169A160002AF7D1190658BF1046F4D57A
:1014600043F04003A3814FF0FF3038BDD9062CD59F
:101470005A0712D4226943F00803A381002ADAD163
:1014800003F42071B1F5007FD5D02146284600F045
:10149000A5FAB4F90C302269CDE7616B51B104F1C2
:1014A0004402914204D02846FFF7B8FEB4F90C304C
:1014B000002262630021226923F02403C4E9002191
:1014C000D9E71846FFF7C0FCAFE7092243F0400315
:1014D0002A60A381C7E700BF000C0020844641EAD0
:1014E000000313F0030349D1403A23D30B68036090
:1014F0004B6843608B688360CB68C3600B69036192
:101500004B6943618B698361CB69C3610B6A036279
:101510004B6A43628B6A8362CB6AC3620B6B036361
:101520004B6B43638B6B8363CB6BC3634030403146
:10153000403ADBD230320BD30B6803604B68436018
:101540008B688360CB68C36010301031103AF3D2DF
:101550000C3205D351F8043B40F8043B043AF9D26D
:10156000043208D0D2071CBF11F8013B00F8013B40
:1015700001D30B8803806046704700BF082A13D34D
:101580008B07B1D010F00303AED0C3F10403D21A1D
:10159000DB071CBF11F8013B00F8013BA4D331F875
:1015A000023B20F8023B9FE7043AD9D3013A11F8F5
:1015B000013B00F8013BF9D20B7803704B78437084
:1015C0008B788370604670472DE9F041144641B333
:1015D0000AB306460D4600F01FFB8442074602D8B8
:1015E000B4EB500F13D821463046FFF797FD8046E5
:1015F00050B1BC422246294628BF3A46FFF76EFF4B
:1016000029463046FFF70AFE4046BDE8F081A8466D
:101610004046BDE8F081A046FFF700FE4046BDE829
:10162000F0811146BDE8F041FFF778BD2DE9F84F94
:1016300092461F460A698B680C469A42B8BF1A4602
:10164000CAF8002091F843300646DDF8289013B11F
:101650000132CAF80020226891065FD5DAF800301E
:101660000233CAF80030226812F0060F11461DD16D
:10167000E1689942D8BF114618DD4FF0000804F127
:10168000190B05E0E568DAF80030ED1A45450CDD88
:1016900001235A4639463046C847013008F101084F
:1016A000F0D14FF0FF30BDE8F88F216894F8433057
:1016B000003B18BF01238A060AD53021E21882F8C0
:1016C000431094F845105A1C2244023382F8431008
:1016D0003946304604F14302C8470130E1D0D4E92D
:1016E00002202368DAF8005003F00603042B216976
:1016F0001BD08A4220DD4FF00008521A904400258A
:101700001A3401E0454517DA0123224639463046AE
:10171000C847013005F10105F4D1C2E712F0060F08
:101720000DD0003B18BF0123D2E7401B8A4220EABC
:10173000E078E2DC0028E2DC0020BDE8F88FE16818
:10174000DAF800309942D8BF114696DCAEE700BF08
:101750002DE9F04717460A7E84B00C4606469846A7
:101760000C9D01F1430C002A35D0A2F15803D9B2E7
:10177000202969D8202B67D8DFE813F0E60066003F
:101780006600660066006600660066006600660029
:101790006600AC00700066006600660066007000BF
:1017A000660066006600660021008300C6006600D1
:1017B0006600B6006600830066006600EC002B68D9
:1017C0002268181D6169286010061B6802D4520641
:1017D00000F1E08019600023E14623613B46214689
:1017E0003046CDF8008003AAFFF720FF013020D05B
:1017F0004A46394630462369C047013019D023682C
:10180000E0689B07DDF80C9018D5484516DD0025EB
:1018100004F1190A04E0E068A0EB0903AB420DDD16
:101820000123524639463046C047013005F10105D3
:10183000F1D14FF0FF3004B0BDE8F0874845B8BFA4
:10184000484604B0BDE8F087012084F8422004F146
:1018500042090023206184F84330BFE72A682368E7
:10186000111D1806296002D4590600F195801068F0
:10187000014600286268C0F293804FF00A0E534878
:1018800015E020682B6810F0800F53F8041B02D17C
:10189000400648BF89B26F2A14BF4FF00A0E4FF0BE
:1018A000080E4A482B600023626884F84330002AFF
:1018B000A26051DB236823F00403236000294BD18D
:1018C000002A7BD1E146BEF1080F56D0ACEB0903EC
:1018D000236183E72A680120116804322A6004F139
:1018E000420984F84210B4E72B6800211A1D2A60CF
:1018F000D3F800906268484600F0F8F8002863D0FA
:10190000A0EB09006060A4E7236843F02003236094
:1019100078222F4884F845202A6813F0800F52F867
:10192000041B03D113F0400F18BF89B22A60DA07F5
:1019300044BF43F02003236019B9236823F0200338
:1019400023604FF0100EAEE75823204884F845304E
:101950002368E1E72368DBE77546E146B1FBF5F371
:101960000A4605FB131A194610F80A30AA4209F86C
:10197000013DF3D2BEF1080FA8D12368DD07A5D53C
:10198000626823699A42A1DC302309F1FF3989F8A2
:1019900000309BE719801EE7B2F90010084668E79F
:1019A0002D20002AA26084F8430002DB23F0040308
:1019B00023600A250548AE464942CEE7037804F184
:1019C000420984F842307EE7606842E754E7000845
:1019D00068E70008704700BF704700BF70B5B1F9F5
:1019E0000C300C46990796B007D5012204F1470345
:1019F000C4E90432236016B070BDB4F90E10054678
:101A0000002929DB6A460AF01AF9002822DB4FF484
:101A100080612846019EFFF781FB88B3A38906F405
:101A2000704643F08003A3814FF48063B6F5005FF6
:101A3000C4E904032060DED12846B4F90E100AF090
:101A40000AF90028D7D0A38923F0030343F0010348
:101A5000A381D0E7B4F90C3013F0800F14BF4026F7
:101A60004FF4806628463146FFF758FB40B1A38902
:101A7000C4E9040643F080032060A38116B070BD62
:101A8000B4F90C309A05B6D4012123F0030304F114
:101A9000470243F00203C4E90421A3812260AAE7BC
:101AA00070B50C46B1F90E10154600291E4696B0C9
:101AB0000FDB6A460AF0C3F800280ADB019B4FF4EB
:101AC000806203F47043A3F50053B3FA83F35B0918
:101AD00007E0A289002312F0800F14BF40224FF4C8
:101AE0008062002033602A6016B070BD5FFA81FC0E
:101AF000810744D00346511E22B909E09A0709D054
:101B0000013905D31846027801336245F6D1704792
:101B100000207047184603290CD80029F8D0034646
:101B2000014401E08B42F3D0184613F8012B6245C3
:101B3000F8D1704710B50CEB0C24024604EB0444BA
:101B400002E00439032915D9104652F8043B6340DA
:101B5000A3F1013E2EEA030313F0803FF1D00346C8
:101B6000014401E08B4208D0184613F8012B62456E
:101B7000F8D110BD10460029F1D1002010BD11464A
:101B8000C9E700BF10B50C46B1F90E100AF04EF8C7
:101B9000002803DB636D0344636510BDA38923F450
:101BA0008053A38110BD00BF002070472DE9F04194
:101BB0000C46B1F90C101F46CB05054616460BD452
:101BC00021F48051A1813B4632462846B4F90E10DB
:101BD000BDE8F0410AF02FB8B4F90E10022300223C
:101BE0000AF02BF8B4F90C10EAE700BF10B50C4668
:101BF000B1F90E100AF021F8B4F90C30421C0EBFF6
:101C000023F4805343F480536065A38110BD00BF6B
:101C1000B1F90E100AF008B851F8043C181F002B57
:101C2000BCBF0B58C018704770B50026074D04465E
:101C3000084611462E600AF03BF8431C00D070BDE8
:101C40002B68002BFBD0236070BD00BFEC1200207E
:101C50000AF038B8032A30B415D941EA0004A407C1
:101C600084460B4604D0541E0FE0043A032A08D9D8
:101C70001946604653F8044B5CF8045BA542F4D067
:101C8000F1E760461946541E7AB1431E0139021924
:101C900001E09A4209D013F8010F11F801CF604515
:101CA000F7D0A0EB0C0030BC7047002030BC704770
:101CB0007BB972B90029BEBF00204FF0004106E099
:101CC00008BF00281CBF6FF000414FF0FF3000F04C
:101CD000B1B9ADF1080C6DE904CE002909DB002B88
:101CE0001ADB00F04DF8DDF804E0DDE9022304B072
:101CF0007047404261EB4101002B1BDB00F040F8D4
:101D0000DDF804E0DDE9022304B0404261EB41016B
:101D1000524263EB43037047524263EB430300F0CC
:101D20002FF8DDF804E0DDE9022304B0404261EB66
:101D300041017047524263EB430300F021F8DDF8A4
:101D400004E0DDE9022304B0524263EB4303704731
:101D500053B94AB9002908BF00281CBF4FF0FF3112
:101D60004FF0FF3000F066B9ADF1080C6DE904CE1C
:101D700000F006F8DDF804E0DDE9022304B0704766
:101D80002DE9F047089D0E4604468E46002B4CD1A7
:101D90008A429446B2FA82F362D953B102FA03FC42
:101DA000C3F1200201FA03FE20FA02F242EA0E0E0B
:101DB0009C404FEA1C47BEFBF7F11FFA8CF607FB6D
:101DC00011EE01FB06F0220C42EA0E4290420AD9C3
:101DD0001CEB020201F1FF3E80F00E81904240F2C6
:101DE0000B8102396244121AB2FBF7F007FB102292
:101DF00000FB06F6A4B244EA0244A6420AD91CEB50
:101E0000040400F1FF3280F0F980A64240F2F6802F
:101E10006444023840EA01400021A41B1DB1DC40AB
:101E20000023C5E90043BDE8F0878B4205D90DB119
:101E3000C5E9000100210846F5E7B3FA83F100295E
:101E400042D1B34202D3824200F2EE80841A66EBA2
:101E5000030201209646002DE5D0C5E9004EE2E7D9
:101E6000002B40F08C80881A0121170C96B2B0FB31
:101E7000F7FE07FB1E00220C42EA004206FB0EF0B2
:101E8000904208D91CEB02020EF1FF3802D29042B8
:101E900000F2CC80C646121AB2FBF7F007FB102204
:101EA00000FB06F6A4B244EA0244A64208D91CEBA1
:101EB000040400F1FF3202D2A64200F2B2801046C2
:101EC000A41B40EA0E40A9E7C1F120078B4022FA8B
:101ED00007FC4CEA030C26FA07FA4FEA1C48BAFB47
:101EE000F8FE06FA01F308FB1EAA1FFA8CF620FA88
:101EF00007F400FA01F90EFB06F023431C0C44EA38
:101F00000A44A04202FA01F20BD91CEB04040EF1C0
:101F1000FF3A80F08480A04240F28180AEF1020E50
:101F20006444241A98B2B4FBF8F308FB134403FB8F
:101F300006F640EA0444A64208D91CEB040403F167
:101F4000FF3068D2A64266D9023B644443EA0E40A1
:101F5000A41BA0FB02E6B4427346B04652D34FD056
:101F60005DB1B9EB030264EB080404FA07F722FA47
:101F700001F31F43CC40C5E90074002153E702FA86
:101F800003FCC3F12000C1404FEA1C47B1FBF7FE40
:101F900007FB1E1124FA00F09E403043020C1FFA8A
:101FA0008CF642EA01420EFB06F1914204FA03F478
:101FB00009D91CEB02020EF1FF382ED291422CD926
:101FC000AEF1020E6244521AB2FBF7F107FB112286
:101FD00080B240EA024001FB06F2824208D91CEBC3
:101FE000000001F1FF3814D2824212D90239604454
:101FF000801A41EA0E413AE77146F4E6104609E7D5
:10200000F145ADD2BEEB020366EB0C060138B046DB
:10201000A6E74146ECE7034698E7C646D3E7D6462F
:102020007FE7644402384BE7084614E7AEF1020E3E
:10203000624430E7704700BF4F2814D8312806D8D3
:1020400015280BD8072894BF002001207047074BA4
:102050003238C0B2C34003F001007047A0F123033F
:102060005842584170470020704700BF01100020BF
:10207000002210B5084B9C78844202D11C888C4207
:1020800007D00332B2F5C07F03F10603F3D100207D
:1020900010BD0120FCE700BFF22B002010B5094C59
:1020A0000B78246820F823400B7800EB8300012391
:1020B00083700B780133B3FBF2F000FB12330B702B
:1020C00010BD00BFEC2B00200023074A12F823109C
:1020D00041B90133182BF9D1044B1870044B1A681D
:1020E000044B1A80704700BFC428002068110020EC
:1020F000EC2B0020BE2800206E22074B5B5C534374
:10210000FF22B3FBF2F3C3F1A0039BB25843642355
:10211000B0FBF3F080B27047B028002001214FF4EB
:102120003470FFF7E9BF02214FF48270FFF7E4BF7C
:102130000421DC20FFF7E0BFC0F3CA03410442BF23
:10214000C3F5FF6307339BB2084A190A10B5545C04
:10215000C3F34602064B33F8113004FB023302048A
:102160009BB244BF5B429BB218B210BD8CDE00082C
:1021700094DE0008044B186880EA403080EA504042
:1021800080EA40101860704764110020002819DDB3
:10219000B0F5004F18DA80FB0032DB0B43EA424314
:1021A000D113C217D0F5404062EB42025A4300FB04
:1021B0000122A3FB00300244D8185241C00B40EA70
:1021C00042407047002070474FF4004070470000C5
:1021D0000E4A08B511680E4B1960FFF7CBFF44F2A9
:1021E0006923B0FBF3F101FB1300A0F50450343870
:1021F0001060FFF7BFFF8323B0FBF3F202FB130075
:10220000044B5A300003186008BD00BFA42800200A
:10221000A02800209C2800202DE9F74F8246184670
:10222000894617469846FFF787FF044608F5804021
:1022300080B2FFF781FF564B834618684FF4206247
:1022400000FB0AF0B0F5004FA8BF4FF4004020EAB1
:10225000E070C0F500400023C117FFF729FD0BFB1C
:1022600001FC4FEAEB7202FB00CC0346ABFB002EF5
:10227000F444D20B42EA4C4209EB020C4FF016092F
:102280006143E21702FB0011A4FB03321144DB0B94
:1022900043EA41436442F81884FB0943E40B44EAEF
:1022A00043448BFB09B34FEADB3B4BEA434B0BFB4D
:1022B0000A0301936FF00F0304FB0AC6A3EB0C079C
:1022C000ACF1F00C6745B8BF67466FF0070227EA2C
:1022D000E777111A8F42B8BF0F4648388742B8BF18
:1022E00007464FF0110B0AEB4A01C1EBC10101EBAC
:1022F000811149008DB24046FFF71EFF044608F5E4
:10230000804080B2FFF718FF84FB09C14FEADC3C34
:102310004CEA414C414281FB091E019BC90B41EA39
:102320004E4101FB0A316FF00F030CFB0A6CA3EB6B
:102330000C0EACF1F00CF4456FF00702B8BFF44698
:10234000A2EB010EE645B8BFE64648398E45B8BF58
:102350008E460D99DDF830C084FB0141CCFB004175
:102360007745B8BF7746644261EB4101E40B44EA2C
:10237000414408498C4207DB0BF1FF3BA8441BF0AA
:10238000FF0B1FFA88F8B6D1384603B0BDE8F08FCE
:102390009828002068A6FFFF431E0A2B07B519D90D
:1023A000114B9978DA785B788DF805108DF8043048
:1023B0008DF8062000209DF8043063F307009DF897
:1023C000053063F30F209DF8063063F3174003B028
:1023D0005DF804FB054900EB40000144032201A81D
:1023E000FFF77CF8E6E700BFA8280020F32E0020C6
:1023F000124B1B789B08113B052B1DD8DFE803F01F
:10240000181C090E14030138C0B2062828BF00208A
:102410007047431E58425841C0007047012808BF0A
:10242000092018BF00207047012808BF0A20F8E7DC
:10243000012808BF0B20F4E700207047A8280020DF
:10244000044B1B789B08162B01D0012801D1024BAD
:1024500018707047A828002063110020054B1878D9
:102460000B2803D00C2803D0FFF7C2BF062070470B
:10247000072070476311002010F0020F0CBF1022DC
:102480004FF48012014B9A61704700BF0008004072
:102490000123034A8340107820EA0300107070473C
:1024A000532700200123034A8340107858401070BE
:1024B000704700BF5327002001F00703C90830B55B
:1024C00001EB4101012401390A4400219C40E4B29E
:1024D00012F8015F20FA01F343F300036B4023403D
:1024E00001315D4003291570F2D130BD002210B5D5
:1024F00000F00704C00800EB4000014410468B5C6C
:10250000E34003F00103934001321843032AC0B2B1
:10251000F5D110BD17B40C46C1B2C0F30720052891
:102520000BD80E290FD8C0EB00100144074A89B21E
:10253000204603B010BCFFF7BFBF031DDBB2012B69
:1025400001D8034AF4E703B010BC704713270020FA
:1025500010270020C3B2C0F30720052882B009D895
:102560000E2B0ED8C0EB00101844074980B202B001
:10257000FFF7BCBF0430C0B2012802D81846034997
:10258000F5E7002002B07047132700201027002035
:1025900030B50124084D04FA01F12B7804FA00F05B
:1025A0000843C1B21840814204FA02F406BF234333
:1025B000DBB2A3432B7030BD53270020054B064AE6
:1025C0001B7812789A4200D17047013303F0070359
:1025D000F8E700BF5A2700205927002010B5094905
:1025E0000B7823EA000010F00704087009D1984224
:1025F00007D0054B5B785B0703D5C008FFF748FFA2
:102600000C7010BD5427002056270020F0B5144B45
:10261000144E1878144B35781B781843E5B1134BDA
:102620009B78012B19D1124B124993F90030002BE2
:10263000114BB2BF1E27062719460C46002214F87C
:10264000013B0BB10132D2B23B1B0B4413F0FF0331
:10265000F5D102B133702843F0BD06270649ECE7F7
:10266000F22E00205027002058270020541100206F
:102670005627002006160020FE150020E7284FD818
:10268000DF2807D8312864D00ED8292857D02A2827
:1026900066D07047A0F1E003072B41D8DFE803F0D4
:1026A0001540232831403C41392804D0822802D0EB
:1026B00035283FD07047324B1A7892071FD15B788C
:1026C00013F0080F18BF292070472D4A1378D90737
:1026D0004DD4527812F0010F22D013F0100F14BF16
:1026E0000020E3207047264B1B7813F0040FF3E71C
:1026F000234A137859073CD45278D207EDD5E0200D
:1027000070471F4B5A7891070AD51B7813F0100FAA
:1027100014BF0020E7207047194B1B781A07F5D427
:102720007047174A1378190725D452789107EDD5C9
:10273000E4207047124B1B7813F0200FC2E7104BB8
:102740001A78920619D45B7813F0080F18BF392055
:1027500070470B4B1B7813F0400F18BF2A207047AF
:10276000074B1B7813F0400F18BF312070473920FA
:102770007047E2207047E62070473520D0E700BF61
:102780005627002010B5304C21784B0713D500F0A8
:102790001402A2F1040C00F01803DCF1000242EB79
:1027A0000C02A3F1080CDCF1000343EB0C039A428A
:1027B00018BF80F00C000B0713D500F01402A2F133
:1027C000140C00F01803DCF1000242EB0C02A3F140
:1027D000180CDCF1000343EB0C039A4218BF80F0A5
:1027E0000C006478E30713D500F0110202F1FF3CFE
:1027F00000F01803DCF1000242EB0C02A3F1080C1C
:10280000DCF1000343EB0C039A4218BF80F009008F
:10281000A30711D500F0110200F01803A2F1110472
:102820006242A3F1180C6241DCF1000343EB0C039C
:102830009A4218BF80F00900CA0603D5030748BFB3
:1028400000F0E70010BD00BF5627002038B5FFF7A5
:1028500015FFB0F5A44F044643D2B0F5A04F80F069
:10286000AE80DF2816D8CC2800F28C80A7280AD8A2
:10287000A42879D8012804D0031F9BB2A12B28BF1C
:102880000024204638BDA0F1A8039BB21A2B71D9B1
:102890000024F6E7B0F5804F19D2B0F5005F80F064
:1028A000A180E728EDD9A0F580739BB2B3F5F85F5E
:1028B000EED2C0F30720FFF765FF0546E0B2FFF751
:1028C000DDFE2D0205F4F85540EA050450E0C0B2E3
:1028D000FFF7D4FE04F47064204340F4204084B237
:1028E000CFE7B0F5A54F22D245F25F23984253D8E7
:1028F00045F23F2398420FD845F21F23984244D80F
:10290000012300F00304C0F38502A34043EA42130D
:1029100043F40D439CB2B4E7012300F00304C0F379
:102920008202A34043EA421343F40C43F2E745F228
:10293000BF2398420AD845F29F23984200F01F0017
:1029400035D84AF2F40343EA00249AE7A0F5A543F8
:10295000403B9BB21F2B9BD8040204F4F85444F470
:10296000204444F0F0048CE7A0F1240444F48044B3
:10297000A4B286E7234B5834E4B233F8144044F44D
:1029800088447EE740F4A044F2E74AF2F10300F005
:102990001F0443EA042474E7012300F00304C0F396
:1029A0008202A34043EA421343F40A43B2E7FFF72B
:1029B000E9FE040204F4F85444F4005461E700F022
:1029C0001F00FFF7DFFE03B2C20648BF1B01C4F3BE
:1029D00043144FEA042448BF03F0F0031C4344F4BB
:1029E0001044C5E7C0F30420FFF7CCFE0546E0B273
:1029F000FFF744FE2D0205F4F855054345F4005554
:102A0000ACB23EE7AEDD0008002070470020704702
:102A100010B5044610B9C90FC80110BD80EAE072B4
:102A2000A2EBE07212B2002901EB02030CDB891A5F
:102A3000490191FBF3F1C1F120014BB2D8B2002C56
:102A4000BCBF4042C0B2E8E75B01521A93FBF2F30D
:102A5000C3F160035BB2F1E730B585B0C0F3074561
:102A600001909DF820001C1A1046FFF7D1FF2C445E
:102A7000E4B2231A0020DBB205FB03331B128DF8EE
:102A80000630019BDAB262F30700C3F3072262F358
:102A90000F20C3F3074363F3174005B030BD84B084
:102AA000019000208DF80420019BDAB262F3070048
:102AB000C3F3072262F30F20C3F3074363F3174006
:102AC00004B070471FB501909DF818001C1A1046FD
:102AD000FFF79EFFE4B2241A00208DF80440019B0A
:102AE000DAB262F30700C3F3072262F30F20C3F3E5
:102AF000074363F3174004B010BD000084B0019099
:102B000003F12C00104B03EB4003D8789B7820385E
:102B1000703B4B4302FB003200209DF80430002A3A
:102B2000B8BF3F3203EBA2138DF80430019BDAB239
:102B300062F30700C3F3072262F30F20C3F30743D6
:102B400063F3174004B07047A4DE00081FB5164CAD
:102B50002C3304EB4304E378A478203B5343A4F1E3
:102B6000700252B2002ABCBFC4F1700462B2C2F15A
:102B7000380201FB023111EB4101019048BF7F3166
:102B8000C0B200EBE1108DF804000020019BDAB226
:102B900062F30700C3F3072262F30F20C3F3074376
:102BA00063F3174004B010BDA4DE0008024B1A788E
:102BB00010431870704700BF0825002000F052B97C
:102BC00008B5074B074A1870074B1B78C3F301037E
:102BD000137000F055F90322044B1A7008BD00BFB2
:102BE000B30E0020B20E0020A8280020AE0E002058
:102BF000044A137883F0010313700022024B1A7009
:102C0000FFF7D4BFA8280020AE0E0020064A137894
:102C100013F0030304BF05490B700121137861F31E
:102C200001031370704700BFA8280020AE0E0020DB
:102C3000054B1A7892071EBF0021044A11701A78BA
:102C400022F003021A707047A8280020AE0E002060
:102C50000C4A034608461178890711D063B1162B38
:102C60000CD803F03F03117863F387011170002241
:102C7000054B1A70FFF79ABF0123F4E71623F2E71A
:102C8000704700BFA8280020AE0E0020054B01466B
:102C90001B789B080133172B34BF18460120FFF720
:102CA000D7BF00BFA8280020064B01461B78C3F3FE
:102CB0008503013B13F0FF0314BF18461620FFF7EE
:102CC000C7BF00BFA828002030B4074C05461846EF
:102CD00023789B0705D06570A170E27030BCFFF7C8
:102CE00065BF30BC704700BFA828002003490346D9
:102CF0004878CA7808308978FFF7E6BFA82800200E
:102D0000054910B44C780346083CCA78A0B28978CB
:102D100010BCFFF7D9BF00BFA828002010B4064C94
:102D20000346A178E2780831FF2928BFFF216078A7
:102D3000C9B210BCFFF7C8BFA828002010B4064CC9
:102D40000346A178E278083921EAE1716078C9B2D6
:102D500010BCFFF7B9BF00BFA828002010B4064C74
:102D60000346E278A1780832FF2A28BFFF22607864
:102D7000D2B210BCFFF7A8BFA828002010B4064CA0
:102D80000346E278A178083A22EAE2726078D2B289
:102D900010BCFFF799BF00BFA8280020044A137990
:102DA0001033FF2B28BFFF231371FFF7FFBE00BFB7
:102DB000A8280020034A1379103B23EAE373137118
:102DC000FFF7F4BEA8280020054A01205379A3F19B
:102DD000FF014B424B410349CB5C5371FFF7E6BE09
:102DE000A8280020BCDB0008054A01205379A3F184
:102DF000FF014B424B410349CB5C5371FFF7D6BEF9
:102E0000A8280020BCDB0008054BC1F180411869EF
:102E100001F2074101F00F01C84000F001007047C6
:102E200000040040C1F10301490040FA01F302220D
:102E300013F0010F14BF0E2308238A4002421ABF69
:102E4000A3F12000C0B243F08000704730B5044DBC
:102E500000EB40002C1861702A54A37030BD00BFF5
:102E6000581A002070B5134605460E460024204629
:102E7000324629460134FFF7E9FF502CF7D170BDE7
:102E80002DE9F84F08272A4D2A4C002695F800B066
:102E900095F801A095F80290A4F10808314658462B
:102EA000FFF7C0FF0136042E08F8010FF6D1002607
:102EB000A4F1040831465046FFF7B4FF0136042E52
:102EC00008F8010FF6D1A046002631464846FFF724
:102ED000A9FF0136042E08F8010FF6D10C37B7F51B
:102EE000727F05F1030504F10C04CED1302383F386
:102EF0001188032340F234410F4A002013700F4B16
:102F000051621362138ED1625B088B4228BF0B465D
:102F10009062D2699361013BD361D36A43F011039C
:102F2000D3620123936080F31188BDE8F88F00BF5E
:102F3000581A00202F160020A81C0020241600205C
:102F400038B50446084D49B180472C6008F082FC32
:102F5000064B80B21880064B188038BD2B68834220
:102F600008BF2960F9E700BFBC270020B827002070
:102F7000B627002008B5034B187008F06BFC024B15
:102F8000188008BDB4270020B227002008B50146EC
:102F9000FFF764FA034660B941B1FFF7A7FE0120CD
:102FA000FFF7E8FF0122084B1A7008BDFFF7A8FEE3
:102FB000F5E700290CBFF8210821044803EB43037F
:102FC000C25C0A44C254EAE791280020F32E002094
:102FD0000120FFF7DBBF0020FFF7D8BF10B5044684
:102FE000FFF73CFA024660B944B1FFF797FE0220B2
:102FF000FFF7C0FF01220D4B1A7010BDFFF79EFEB8
:10300000F5E70B4902EB42030B445B78400044B107
:103010000833FF2B28BFFF230244DBB211444B705F
:10302000E5E7083B23EAE373F6E700BF91280020B9
:10303000F32E00200120FFF7D1BF0020FFF7CEBF05
:1030400010B50446FFF70AFAB8B9164B58789978C4
:10305000DA7874B10432FF2A28BFFF220023D2B2EB
:10306000FFF732FE0320FFF785FF01220E4B1A7097
:1030700010BD043A22EAE272F0E70C4A00EB40038A
:1030800013449B78410044B10433FF2B28BFFF2336
:103090000144DBB20A449370E4E7043B23EAE373A0
:1030A000F6E700BFA828002091280020F32E00207A
:1030B0000120FFF7C5BF0020FFF7C2BF10B50146D2
:1030C000FFF7CCF90F4C024678B959B1FFF766FE0D
:1030D0000D4B1B7923700420FFF74CFF01220B4B93
:1030E0001A7010BDFFF766FEF2E7235C31B11033B2
:1030F000FF2B28BFFF23DBB2A354ECE7103B23EAEE
:10310000E373F8E7B0280020A828002091280020C9
:103110000120FFF7D3BF0020FFF7D0BF38B5224B07
:10312000A8B11A70214D1B782C78BCB973B1204B13
:1031300013F8012B72B101232B7008F08BFB0022D6
:103140001C4B18801C4B1C701C4B1A7038BD184847
:103150004254E7E70134042CEAD1F7E72BB1164BD0
:10316000134A1B78D35C002BF0D1124B1C8808F05B
:1031700071FB41F28733001B80B298429DBF41F240
:103180008833C0EB0020B0FBF3F0FF200C4B98BF5E
:10319000C0B21870002301222B70084B1A7008F07F
:1031A00059FB084B1880D1E7B1270020AC2700203D
:1031B000AD270020AA270020A8270020A72700204D
:1031C000A6270020A4270020F8B508F037F90B4EF9
:1031D000C0F3400433782BB1094D2B78A34203D1BF
:1031E000002333702046F8BD064B1F8808F032FBE1
:1031F000C01B80B2F928F3D82C78F3E71F2F0020EA
:103200001E2F00201C2F00200E4BD8787E280FD9AF
:103210006E235843FF23B0FBF3F0C0F1A0004FF43E
:10322000827380B258436423B0FBF3F080B27047DE
:1032300040F2171358437F23B0FBF3F0C0F5C07082
:103240000130ECE7B02800200021FF200A4608B535
:10325000094B0331B1F5C07F98701A80DA701A718A
:1032600003F10603F5D1054B1A7008F0F3FABDE837
:103270000840FCF7BBBF00BFF22B0020F02B002062
:10328000F7B514460422002705460E460F200DEB25
:10329000020101970AF076F8019BCA2B0FD1344442
:1032A000CA2C88BFEF2406F1250098BF2534241AC4
:1032B000224629460AF066F8204603B0F0BD2246B1
:1032C00039462846FDF7E8FDF6E7002307B5022258
:1032D0000DF10601ADF806300AF054F8BDF806000D
:1032E00003B05DF804FBCAB2C1F30721052982B01F
:1032F00006D80E2A14D8052812D802B007F0BABD95
:10330000FD2906D162B905280AD8012102B007F0CB
:1033100086BEFC2904D11AB9052801D81146F5E763
:10332000002002B0704700007FB505240F4BADF8B8
:1033300004001E780E4B1B781E4346FA04F3DB078D
:1033400005D4013CF9D20025284604B070BDBDF873
:103350000430E5B2ADF80C3003992846FFF7C3FFFF
:10336000FFF774FA80B20128EBD0EDE75327002075
:103370005227002013B502884379ADF80420019844
:1033800073B169B1FFF7D0FF044601460198FFF71A
:10339000C1F82046019902B0BDE81040FFF7A3BF75
:1033A000FFF7D8F80446F4E71FB5ADF8040001981C
:1033B000FFF7BAFFBDF80430ADF80C300399FFF702
:1033C00092FF05B05DF804EBFFF740BA08B503467D
:1033D0000079A8B11888FFF7E7FFC3B2C0F3033044
:1033E000062813D094BF0E30063000F00F000128DD
:1033F00010D8F02B10D004D8E72B8CBF0020012070
:1034000008BDF42B14BF00200120F9E7E72B03D9F6
:10341000F12BF7E70020F3E70120F1E737B50C4681
:103420000546FFF752FFA04207D0022228460DF1C1
:103430000601ADF8064009F043FF03B030BD0000BF
:10344000094A08B55378C3F3800181420BD060F379
:103450008203537004201188FFF7E0FFBDE80840A5
:103460000220FFF7BBB808BD5627002037B504225D
:1034700000230C460DEB02010193054609F082FF83
:10348000019B9C4206D0042228460DEB02010194C8
:1034900009F016FF03B030BD002208231146014891
:1034A0000AF09ABA0C08004038B508F0D3F900F5D4
:1034B0007A7508F0CFF9854214D9FFF7EDFFA0B176
:1034C00005200AF099FA0AF0A9FA04460AF0CCFAA3
:1034D000002C04DB14F00104EBD1204638BD231D81
:1034E000E7D0FAE76FF00104F7E74FF0FF34F4E7B5
:1034F000F7B51F464BBA090C064615468DF8040071
:10350000ADF806308DF80510FFF7C6FFE8B10421CD
:103510000DEB01000AF094FA044648B945B1022EB9
:103520000BD0032E0ED12846B9B20AF093FA044606
:103530000AF09AFA204603B0F0BD2846B9B20AF064
:103540007FFAF4E74FF0FF34F2E74FF0FF34F1E792
:103550002DE9F04107460C46D600FFF7A5FF0546CA
:1035600048B1324600212046FDF796FCB5FA85F0B9
:103570004009BDE8F0813346224639460320FFF773
:10358000B7FF05460028ECD121462644D1E90023A7
:10359000D243DB4341F8082BB14241F8043CF5D15A
:1035A000E4E700002DE9F0418846164600251F4655
:1035B0000E4B2A01995C03EB051491B9012160704F
:1035C000995408F047F99DF818307600A3739DF8D8
:1035D0001C306060C4F8088026736773E373BDE82D
:1035E000F0810135142DE4D1F9E700BF242F00202C
:1035F00013B5FF2403222346C8210220019400941E
:10360000FFF7D0FF032223461046C82101940094FF
:10361000FFF7C8FF23460322C8213F2001940094EE
:10362000FFF7C0FF23460322C82104200194009421
:10363000FFF7B8FF02B010BD312808B514D04028FC
:1036400014D008D8012811D9094B1B7813F0220F88
:1036500004D0032008BD4B380328F4E707F0EEFE42
:1036600010F00200F5D1F5E70220F3E70120F1E7C1
:10367000F22E0020F0B50625084FDFF824C03C7874
:10368000654301340CEB050604F07F04B070F27062
:103690003C702CF805103371F0BD00BFF02B0020FA
:1036A000F22B002010B506494B2000230122098887
:1036B000FFF7E0FFBDE810404020FFF7DBBF00BF91
:1036C000EC2B00201D4B1E4A1B6811688B4233D027
:1036D00013601C4A12787AB31B4AFF21136000233F
:1036E0001A4A13801A4A107900B191700133802B65
:1036F00002F10602F7D100231946164A107900B1EB
:10370000D1700133082B02F10602F7D100231946CC
:10371000114A107900B1D1700133082B02F1060271
:10372000F7D1002319460D4A507900B111710133C8
:10373000062B02F10602F7D1704700BFEC2B0020E8
:10374000E82B0020BC2B0020B82B0020B42B00203D
:10375000F22B0020842B0020542B0020302B002043
:1037600038B50A245025FCF773FD90FBF5F303FBF5
:103770001500C2B21046FEF75FFC20B1013C14F008
:10378000FF04F0D1FF22104638BD0000202202497C
:103790000248FEF783BC00BFA82A0020AA2A002006
:1037A000202202490248FEF779BC00BF262A0020E9
:1037B000282A0020202202490248FEF76FBC00BFE1
:1037C000A4290020A6290020202202490248FEF751
:1037D00065BC00BF222900202429002018220249AC
:1037E0000248FEF75BBC00BFC0280020C2280020B2
:1037F000F0B506250D4EDFF838C033782C3005FBC8
:1038000003F72CF807100B490CEB070401EB400100
:103810008878C9786271E17001210B44B3FBF5F23D
:1038200005FB1233A07033702171F0BDBC2800205D
:10383000302B0020A4DE0008104B10B51C8808F0C7
:1038400009F841F28733001B80B298429DBF41F2D4
:103850008833C0EB0020B0FBF3F0FF204FF00002F4
:10386000074B98BFC0B21870064B1A700122064B66
:103870001A7007F0EFFF054B188010BDC627002017
:10388000C4270020C3270020C2270020C027002013
:103890000328F8B505463AD801261D4B1D4F187070
:1038A0001D4B00211E7032234343FC18F85CFFF7C8
:1038B000CFF90023E278A1786078FFF705FA227942
:1038C000164B00201A71FFF771F92346324614494E
:1038D000144893F802C0DE781C7993F801E00132B5
:1038E0000D2A81F800E081F801C08E7000F8014BCC
:1038F00003F1040301F10301EBD1322303FB05774C
:1039000097F83130084A003B18BF01231370F8BD07
:1039100090280020C827002063110020A82800203C
:10392000F32E0020B028002062110020042828BFB8
:103930000020294B10B51B5C0C460B70A6234B7066
:10394000FF238B708023CB707F2304220B71601DBB
:103950002249FDF7C3FD0422214904F10900FDF7C6
:10396000BDFD04221D4904F10D00FDF7B7FD042241
:103970001A4904F11100FDF7B1FD0422174904F1C1
:103980001500FDF7ABFD0422164904F11900FDF7FF
:10399000A5FD0422144904F11D00FDF79FFD04223A
:1039A0000E4904F12100FDF799FD04220B4904F1B1
:1039B0002500FDF793FD0422084904F12900FDF7D5
:1039C0008DFD0422054904F12D00FDF787FD01233B
:1039D00084F8313010BD00BF88DE000884DE0008A6
:1039E00094DA000898DA00089CDA0008A0F58072E2
:1039F000B2F5F85F034610B421D213F4805F00F4EF
:103A0000007403F48062C0F3002003F400630BD061
:103A100000010CB140F020000AB140F040000BB1B1
:103A200040F0800010BC08470CB140F002000AB121
:103A300040F00400002BF5D040F00800F2E7002031
:103A4000F0E77047044B1B781BB1034103F0010002
:103A500070471846704700BF5327002008B5012063
:103A6000FFF7F0FF68B90220FFF7ECFF48B9032029
:103A7000FFF7E8FF28B90520FFF7E4FF00F0010099
:103A800008BD0120FAE700002DE9F84FDFF8BC80FF
:103A90002F4BD8F8002019688A421BD02D491A6094
:103AA000FFF7DCFF0B784BB140B90346FF242A4AED
:103AB0000133802B947002F10602F9D1DFF89C905B
:103AC00000264F460870FFF7FDFD17F810ABF3B264
:103AD0009A4501D8BDE8F88F17F8014F2046FEF748
:103AE000ABFA28BB06F10C0309EB43035A789B7829
:103AF000D8F8005042EA0323ED1AADB22946204619
:103B0000FEF7B6FA834698B92046FFF795FD5B4667
:103B1000024629462046FFF7ADFD4B2C0AD1402036
:103B2000FEF7A6FA034618B901224020FFF7A2FDCE
:103B30000136CCE7402CFBD14B20FEF799FA034627
:103B40000028F5D101224B20F0E700BFEC2B00202C
:103B50002C2B00202A2B0020F22B0020BC2B002035
:103B60000123034A8340107818431070704700BF48
:103B70005327002010B51C4B9B78012B1ED11B4BEB
:103B800093F90030002B19DAFEF740FD184C202283
:103B9000607018492046FEF75DF820B320222146C8
:103BA0001448FDF79BFC144B1B68E3B19B68D3B131
:103BB000062222702046BDE810401847FEF726FD79
:103BC0000E4C082220700E492046FEF743F850B1F3
:103BD000082221460A48FDF781FC074B1B6813B1F8
:103BE0005B68002BE6D110BD541100205627002041
:103BF00004160020E226002004270020FC150020E7
:103C00000827002038B51C4B1B78D3B19378C3B17B
:103C100014785578844201D0854212D185424C797E
:103C20000CBF012100211144CC7014BF01210021DF
:103C30005018C07828B1022B05D014D9D81E0128FD
:103C40000CD9012038BD505C2CB907F03BFCFFF7C4
:103C500091FF0020F6E707F06DFCF8E7033B18BF83
:103C600001239942F5D0505C14B907F02BFCE8E72A
:103C700007F060FCE5E700BF6911002010B50446BD
:103C800000285AD0031FDBB2A02B27D82B4B9B78E0
:103C9000012B13D12A4A92F90020002A0EDA294A70
:103CA00000F0070102EBD00292788B401A420ED04E
:103CB000204607F03FFCFFF75DFF08E00023224AA3
:103CC00012F8011FA142F3D00133062BF8D1204690
:103CD00007F0F8FBBDE81040FFF74CBF00F12003F0
:103CE000DBB2072B08D80123184A00F0070411782B
:103CF000A3400B431370EDE700F15B03DBB2022B33
:103D000005D8BDE81040243880B207F0A1BB00F10F
:103D10005803DBB21A2B06D8BDE810400C4A32F823
:103D2000130007F0B1BB3334E4B2122C05D807F00E
:103D3000E9F9BDE8104007F0D3BD10BD54110020D3
:103D40005627002004160020FD150020F22E00202A
:103D5000AEDD000828B1034B1A7810431870FFF746
:103D600009BF7047F22E002028B1034B1A78104388
:103D70001870FFF7FFBE70475827002030B1044A83
:103D8000137823EA00031370FFF7F4BE704700BFF7
:103D90005827002010B500240E4B1C7007F0F8FBCC
:103DA000204607F055FB204607F06EFB0A4B1C70BF
:103DB000FFF7E0FE214606220848FDF76DF8084BA4
:103DC0001C70084B1C70084B1C70BDE8104007F0BD
:103DD00087BD00BFF22E0020582700203A27002080
:103DE00039270020382700203727002008B583789E
:103DF000022B06D9FFF7CEFF024B034A1A6007F0E9
:103E0000E1FB08BDFC6F0020EFBEADDE024A137877
:103E100023EA000313707047F22E002008B5034612
:103E2000A0B3021FD2B2A02A05D807F083FBBDE8D9
:103E30000840FFF79FBE00F12002D2B2072A07D840
:103E400000F0070301209840C0B2FFF7DFFFEEE764
:103E500000F15B02D2B2022A04D8BDE8084000207B
:103E600007F0F6BA00F15802D2B21A2A04D8BDE817
:103E70000840002007F008BB3333DBB2122B05D813
:103E800007F092F9BDE8084007F02ABD08BD08B563
:103E900028B1FFF7BBFFBDE80840FFF76BBE08BDC8
:103EA00008B5302383F31188012100F00F039940F6
:103EB000202220F00F0007F0D9FF002383F31188A0
:103EC00008BD00000123C1F1804101F2074101F06A
:103ED0000F012022024803FA01F107F0C7BF00BF1B
:103EE00000040040002307B501220DF107018DF801
:103EF000073009F047FA9DF8070003B05DF804FBAE
:103F0000F8B50D4606461446D31D23F0070300AF4F
:103F1000ADEB030D6946284609F034FA224669469E
:103F20003046FDF797FE20B122463146284609F07B
:103F3000C7F9BD46F8BD38B5322303FB00F40D4682
:103F40000F20CA21FFF792FA04F13203CA2B88BF6F
:103F5000EF2204F1250198BF04F157022846BDE87D
:103F60003840521AFFF7CCBFF7B5314B0146314C00
:103F700048B101221A700023237007F06BFC2E4B0E
:103F8000188003B0F0BD187023782C4D002B40D062
:103F90000220FEF77DFA2B782170002BF1D032241D
:103FA000274B284A1878284B44431E78A118C6F39B
:103FB00085065F7816559E78DC781B798E700B71BC
:103FC00001260B464F70CC70204F214C94F803C053
:103FD000013683F805C094F804C00C2E83F806C09F
:103FE00094F805C003F1040383F803C017F801CF68
:103FF00004F1030483F804C0E8D1322303FB002258
:10400000144B1B7882F83130FFF795FF00232B709B
:10401000B7E7FEF73BFE01220F4B2A701A70FF2311
:104020007821242001930093FFF7BCFAA9E700BF91
:104030009528002094280020922800209128002014
:1040400090280020C8270020A8280020B0280020A1
:10405000F32E0020621100206311002030B50024EF
:104060008FB0E5B2284601A9FFF760FC013428466D
:1040700001A9FFF760FF042CF3D10023CA210F2010
:104080008DF80430FFF7F2F9012201A8ED21FFF7C6
:1040900037FF0623CA210F208DF80330FFF7E6F91A
:1040A0000122EE210DF10300FFF72AFF0FB030BD12
:1040B000082208B517210348FFF722FF0022024B10
:1040C0001A7008BDA82800200825002010B5084C4B
:1040D00059232046032200F8013B0649FDF7FEF96B
:1040E0004FF67F73A380BDE81040FFF7E1BF00BF2C
:1040F000A8280020A0DA000837B50C460546FFF7CF
:10410000F1FEA04207D0012228460DF107018DF8EB
:10411000074009F0D5F803B030BD0000F0B585B018
:1041200009F03EF94FF6E3610020FFF777F900212F
:104130000220FFF7E1FF0121194B03201970FFF75F
:10414000DBFF4FF4A4510420FFF768F9FFF7BEFF2F
:10415000CA210F20FFF78AF9102200216846FCF7D8
:104160009BFE0D242527CA25102D2E4628BF10267C
:10417000394632466846FFF7C3FE013C3744A5EB9B
:104180000605F1D107F032F9FFF768FF2146132049
:10419000FFF76CF905B0BDE8F040FFF789BF00BF3D
:1041A0005227002008B58378022B05D9FFF7B6FF08
:1041B000FFF7F0FD07F006FA08BD0000044B93F886
:1041C00004281AB9012083F80408704702207047B8
:1041D000E81C0020054B93F8042822B1002201209E
:1041E00083F8042870470220704700BFE81C0020B5
:1041F00008B5064B4FF4006200211846FCF74CFE50
:1042000040F60802C0F8002808BD00BFE81C0020E6
:1042100038B5FFF749F9054690B9FFF73DF904466F
:1042200070B1062009F0E8FB09F01EFC2B462A4677
:104230002946D820FFF75CF910B9FFF735F900B12E
:104240000024204638BD2DE9F04F074615464FF0B3
:10425000000AC3B00191202D2E4628BF2026F3006E
:104260001A460093019B02A803EBCA01FDF736F939
:10427000002202ABD3E90001C043C943013243F835
:10428000080B964243F8041CF4D1B946DDF80080CF
:104290000DF1080B5FFA89F4C4F58074444528BF1A
:1042A0004446FFF701F940BBFFF7F6F828B30620B4
:1042B00009F0A2FB09F0D8FB23465A4649460220E2
:1042C000FFF716F9C8B9B8EB0408A344A144E1D13B
:1042D000FFF7EAF888B9FFF7DFF8044668B1042071
:1042E00009F08AFB09F0C0FB009BAD1B1F44B244E0
:1042F000B1D1204643B0BDE8F08F0024F9E70000BB
:104300002DE9F347FFF784FF0146A0B1FFF756FF01
:104310002B4904464FF480720020FFF794FF284D8C
:104320000146002842D1012C01D1FFF753FF40F68E
:104330000803C5F80038084602B0BDE8F08717F852
:10434000013B4FEA4E195A40A2FB003800FB0E8891
:104350004FEA421A49EAD26913EB0A0348EB09080B
:104360004FEAC21A9B184FEACE194FEA02264EEBCB
:10437000080849EA526913EB0A034FEA0E2E48EB8C
:1043800009084EEA126E9B1948EB0E0EB64413EB69
:104390000C020139D3D16946CDE9002E4FF40060FB
:1043A0000122FFF750FF4100C9B2BCE740F601010E
:1043B0002F464FF0000C1220024ADFF80CE0E8E72D
:1043C000E81C002025232284E49CF2CB044BD3F884
:1043D0000038B3F5805F01D3FFF792BF012070472B
:1043E000E81C0020034630B52A49C3F3074213F402
:1043F0007F4F8A5C85B0C0B2C3F3072546D0062440
:10440000FF234443591BB4FBF3F46FF0540363439D
:1044100003EB400303EB4303DBB203FB05F0C3F103
:10442000FF036B4300121B12C0F1FF00C3F1FF0337
:10443000514350435343C1F30721C0F30720C3F353
:104440000723062C1ED8DFE804F004061114181DFB
:10445000040010461A4613460246002062F3070085
:1044600063F30F2061F3174005B030BD08461946CD
:10447000F1E7034608461146ECE710460A460146B6
:104480001846E8E7034610460A46F0E71146134689
:10449000E3E700BFE4DB00084B2810B50C4601D071
:1044A000402815D10B4B1B7813F0220F10D00A4A6D
:1044B00053789178D07843EA012343EA0040FFF72C
:1044C00091FFC0F307232070C0F307406370A07012
:1044D00010BD00BFF22E0020A8280020012830B512
:1044E00001D8C0B230BDB0F5F75F88BFFF224FF0F2
:1044F00001049EBF42090832D2B2A3185910C3F377
:104500004705C3F34F035B439BB2984206D2013D7C
:10451000EAB29442F1D9013CE0B2E3E7FF2902D0CC
:104520000135ECB2F5E70846DCE70000074B1888D8
:1045300000EB402200EB820000F55850193080B2A9
:10454000188000EB1020C0B2704700BFB40E0020EE
:1045500010F0400216BFC3430346DBB210B503F0B0
:104560000F0102B10131094CC3F3011304EB430203
:10457000527814F813304A4303EB2213DBB20206DD
:1045800044BF5B42DBB283F0800010BDDCDB00087F
:104590001FB5C0F3074401905008FFF7D9FFA0F101
:1045A00080035BB2002BBCBFC0F1800043B200208F
:1045B0005B00DBB204FB03331B128DF80630019B5A
:1045C000DAB262F30700C3F3072262F30F20C3F3EA
:1045D000074363F3174004B010BD000030B50D462B
:1045E00085B00190C4B21046FFF7B2FF124901EB4B
:1045F000450191F85A30C218D2B2A2F180035BB2E1
:10460000002BBCBFC2F1800253B20D2200205B0020
:10461000DBB2534304EB13248DF80440019BDAB260
:1046200062F30700C3F3072262F30F20C3F30743CB
:1046300063F3174005B030BDA4DE0008FEF706BCEA
:104640002DE9F843002506460F46A8461E4C237860
:10465000002B32D0D4F8049007F0FCF8A368A0EB4C
:10466000090083421CD807F0F5F8237B606093B9FA
:1046700084F80080C4F804806078617BB042A27B3B
:10468000E37B1AD3B84218D2DB43D243C943DBB22F
:10469000D2B2C9B20FE0013BDBB22373002BE7D0EB
:1046A000237B6078DB07E7D5864206D8874204D9AA
:1046B000E37BA27B617BFFF7C1FF0135142D04F181
:1046C0001004C4D1BDE8F883242F0020F7B50546B7
:1046D0000120FFF7B7F90E460446284F28B13B7872
:1046E0001BB907F0B7F8264B188001203C70FFF784
:1046F000A9F9002840D00220FFF7A4F900283BD1F7
:104700000320FFF79FF9002836D10520FFF79AF91B
:10471000044688BB1A4B1F8807F09CF8C01B80B268
:10472000952829D9174B184F997DDA7D5B7D8DF837
:1047300005108DF804308DF806200198FFF752FE21
:10474000C0F307238DF80130C0F307438DF8000054
:104750008DF8023017F8010BA84209D3B04207D2F6
:104760009DF802309DF801209DF80010FFF766FFCC
:104770000134E4B20C2CEDD103B0F0BD1A2F0020AF
:10478000182F0020F32E0020EEDF00080301002088
:10479000DBB203F11002D2B2502A63F307001346D2
:1047A00028BF502382B063F30F2002B0704700008F
:1047B0002DE9F04FB44BB5B01B78B44E8342049052
:1047C00031D1B34B37781B7807F00307FF1A18BFB6
:1047D0000127B04D73796A78AF709A4205D00022F4
:1047E000114610466B70FEF7E9F9049B162B1CD896
:1047F000013B152B1FD8DFE813F026004C008A0080
:10480000C800CC0028014201440161016501670133
:10481000A301A5013102B902BD02D7029307EF0738
:104820000709230A930B0127D3E7049BFF2B02F010
:10483000158000240DE1002FFBD000221146104608
:10484000FEF7BCF9F5E72878FFF7A0FF92490322AD
:10485000ADF88800C6B2C0F307242BA8FCF73EFED3
:104860002B98FFF7BFFD8D4FC1B2C0F30722C0F3F5
:104870000743F0B2844201D84F2CE6E1B85D95F8C9
:1048800001C010EA0C0F02D03046FFF7D7FE013608
:10489000EFE72878FFF77AFF3379DFF800820133FA
:1048A0009B0896F8029096F803A0ADF88800C0F334
:1048B00007240293C7B2A8F19F0BFBB29C42DBD93D
:1048C00018F807306A7813421FD01BF81720029996
:1048D0007378120902FB01338DF8AD908DF8AC307E
:1048E0008DF8AEA02B98FFF77DFDC0F30722C0F333
:1048F00007438DF850008DF851208DF85230C1B229
:10490000DBB23846D2B2FFF799FE0137D5E72878F7
:10491000FFF73CFF3379DFF8848101339B0896F879
:10492000029096F803A0ADF88800C0F30724029324
:10493000C7B2A8F1A00BFBB29C429DD918F8073072
:104940006A7813421FD0029B1BF817208DF8AD9098
:104950005A4373788DF8AEA003EB62138DF8AC3038
:104960002B98FFF73FFDC0F30722C0F307438DF8F4
:1049700054008DF855208DF85630C1B2DBB2384660
:10498000D2B2FFF75BFE0137D5E7454807F0D2FB0F
:104990005EE02878FFF7FAFE424B32791B88520816
:1049A00002FB0333C3F3072302933F4BC7B2ADF8B7
:1049B0008800C0F3072403EB470903F1FA0AFBB2AE
:1049C0009C427FF659AF1AF807306A78134238D004
:1049D000F37899F85A1099F85B00727896F802B05B
:1049E0000393029B70392038ABEB03080592FEF766
:1049F0000FF8059A5FFA88F88DF8AC20C0EB8012AA
:104A000000EB820080445FFA88F80BFB0888039B68
:104A10004FEA28288DF8AE308DF8AD802B98FFF73F
:104A2000E1FCC0F30722C0F307438DF858008DF86E
:104A300059208DF85A30C1B2DBB23846D2B2FFF7F6
:104A4000FDFD09F102090137B9E7184807F060FADE
:104A50000446104B1A7801321A70002C41F011876D
:104A60000221134A9B781170002B41F00A87049BA6
:104A7000002B41F006870323137001F002BF0D489D
:104A800084E70D48E2E700BFB30E0020A82800200D
:104A9000B20E0020AF0E0020A92800209EDF0008E3
:104AA00091450008EC2B0020A4DE0008592A0008DC
:104AB000AE0E00209F2A0008C52A0008AE4807F065
:104AC0009DFAC5E7AD48FAE72978C9B93279AC4B08
:104AD0001032FF2A28BFFF221B8802FB0333052266
:104AE000C3F30F23B3FBF2F202EB82029B1A9BB2D9
:104AF00033B9FFF71BFD50235843A24B0012188017
:104B00000846FFF743FE0446ADF8AC00C5B2C4F357
:104B1000072497B99B4E308885423FF6ADAEA04240
:104B2000BFF4AAAEC0B207F0D5FA51233380A3E692
:104B3000284607F0CFFA0135EDB2AC42F8D89BE633
:104B4000914823E72C782046FFF720FEC3B2ADF84A
:104B500088000293C0F3072B4FB100221146104684
:104B6000FEF72CF85A2200218848FCF795F97CB909
:104B7000874C258806F06EFE401B80B218288CBF3B
:104B800001220022834B1A7002D906F063FE2080B6
:104B900000252F460026804B05EB030A7B4B05EBD7
:104BA00003081AF8019B029B4B4544D8CB4542D9D8
:104BB000794B4B4493F8FA20784B5B781A4238D003
:104BC00098F80040764904F1AA03FF2B28BFFF2381
:104BD00003EB43038A780233C978DBB201FB03336A
:104BE000A4F1550121EAE171C3F30723C1F1AA0140
:104BF0008DF8AC108DF8AD208DF8AE302B98FFF706
:104C0000F1FBC0F30722C0F307438DF860008DF875
:104C100061208DF86230C1B2DBB24846D2B2FFF7F4
:104C20000DFD5C4B1B7823B1013C24EAE47488F849
:104C300000400137FFB20136F6B20F2E08F101082D
:104C4000AFD14B2D05D1BBF14F0F8CBF00240124F8
:104C5000FFE60F2F05F10F059CD9F4E72878FFF741
:104C600095FDDFF840B1C5B29BF80030ADF8740097
:104C70000293494BC0F3072403EB4509FA3303932E
:104C8000EBB29C427FF6F8AD039B444A5B5D5278E1
:104C9000134230D04FF0000841484646077941782A
:104CA0000137FF2F28BFFF278278C378DFF8F4A0F1
:104CB0000137DDF808C05FFA88F084451FD803FB90
:104CC000066636128DF888108DF889208DF88A6076
:104CD0002298FFF787FBC0F30722C0F307438DF844
:104CE000AC008DF8AD208DF8AE30C1B2DBB22846F5
:104CF000D2B2FFF7A3FC013509F10209C0E71AF8A7
:104D0000010F99F85AC09AF808E0ACEB000C1FFAB2
:104D10008CFC0CFB0CFC99F85B000791A0EB0E00DF
:104D200000FB00C080B206930592FFF7D7FB08F1A5
:104D30000C0E0BEB4E0E9EF801C09EF802E0079998
:104D40004CEA0E2C07FB0CFCC0EB1C2080B2FF28A9
:104D500028BFFF20C043C0B23044FF2828BFFF2037
:104D6000069B059AC6B208F10108A2E7002007F0E9
:104D700037FA6DE60120FAE7FD2A00084D2B0008FE
:104D8000EC2B0020AC0E0020DD4500088025002023
:104D90005A1B0020591B0020A4DE0008AF0E002083
:104DA000A8280020BC2B00202C782046FFF7EEFC22
:104DB000C3B20F93C0F30723ADF854000B93002C3C
:104DC00064D1764B764E1B680293002F00F00E8163
:104DD00006F040FD029B734A80EAC320724B4340B9
:104DE000012B38BF01231360FDF7C4F9FDF7C2F9A9
:104DF000FDF7C0F9FDF7BEF9FDF7BCF9FDF7BAF90B
:104E0000FDF7B8F9FDF7B6F9FDF7B4F96923B0FB82
:104E1000F3F202FB1300654B3C3000031860FDF712
:104E2000A9F91923B0FBF3F202FB1300604B143015
:104E300000031860FDF79EF95E4B347018605E4BFE
:104E40001C60FDF797F910F0010F0CBF4FF0FF3217
:104E500001225A4B1A70FDF78DF910F0010F0CBFAB
:104E60004FF0FF320122564B1A70564B1C60FDF773
:104E7000AFF9554B1C60554B1C60554B1C60554B96
:104E80001C70554B1C70554B029A1A6000214FF054
:104E9000FF084FF0480B4FF0BF0A4FF03C09434B5F
:104EA000DFF83CE11B6818AC43F30F23002BB8BFBD
:104EB0000F331B1102933E4B1DA81B682BAD43F310
:104EC0000F23002BB8BF0F331B110393424B0DF17F
:104ED000880C1F783F4B1B783B44013B07933B4BAF
:104EE0001B680693CEB2B7423ED91122079B5B1ACC
:104EF00093FBF2F202EB02129B1ADBB23EF9336033
:104F00000EEBC303B3F902205B680592069A0131E8
:104F1000D31AC3F30B33472B9BBFC3EB0323B3FB62
:104F2000FBF3FF23DBB2DB43059A002EB8BF0F363D
:104F3000002AB8BF0F321211DBB225F8022B03FB97
:104F4000033209FB03F3B3FBF8F312120AFB02F27C
:104F500036111212283312292CF8026B04F8012B97
:104F600000F8013BBED10E4640F283481D4B0F9C1A
:104F700093F82120059293F8222093F8233007928A
:104F80000693194B03EB4405FA3308930B9AE3B2EB
:104F90009A4200F2218313464F2B56E6EC2B002059
:104FA000FA1B002064110020B979379E041C0020F0
:104FB000001C0020FC1B002098280020F91B00206A
:104FC000F81B0020A4280020F41B0020F01B002068
:104FD000EC1B0020E91B0020E81B0020081C00201F
:104FE0005C1B0020F32E0020A4DE0008C44B029AB4
:104FF0001B68C44DD41A4FF6FF72944228BF144662
:10500000C14AA4B2D07A4FF404425043FF2200F5C3
:105010008F1000F56060B0FBF2F03278322C28BFC0
:105020003224002A40F07C820123286033702968F2
:105030004FF47A7284FB014109010023200141EA07
:105040001471FCF735FE0390039B002B7FF71BAF19
:10505000DDF80CB0AD4ABBF5405FA8BF4FF4405B34
:105060001368AB4D5B441360A84B2A681C689442DC
:1050700080F26782E117C903D317E00341EA544184
:10508000FCF716FEFDF782F8A24B1A68A24B1B68CC
:105090009B1A83FB0030DB0B43EA404302EB03091E
:1050A0009E4B1B680C931B1305939D4B1B680D9324
:1050B0001B1306939B4B1B680A931B0C03F5804044
:1050C00080B20793FDF738F809900798FDF734F898
:1050D00016220021099B80EAE07583EAE376A5EBBE
:1050E000E075A6EBE376ADB2B6B208903301C5F534
:1050F0000040C0FB0231DB0B43EA4143C6F50040F0
:10510000290F2C01C0FB0241099AE40B002A059AE1
:10511000B8BF5B42D3180E93089B44EA4144002B6E
:10512000069BB8BF6442234400241022002122A819
:105130001093FBF7B1FE059A069B0027C2F102010E
:10514000DE3A2C92C3F106023A3B2B912D922E931C
:105150000DF1AC0A0DF18808012F8CBF0E2212222E
:105160005AF8041BD8F8003021EAE1719142A8BF37
:1051700011464FEAE17C4FEACC3C1193C80300236F
:105180004CEA5141FCF794FD119B01378342ACBFBF
:1051900048F8043B48F8040B042FDDD1002C00F044
:1051A000D681229B23AC94E89001A3421846B8BF55
:1051B0002046B842B8BF38464045B8BF40460E9377
:1051C000FCF7E4FFA5F57A55002D82462EDDE917A0
:1051D000C903002344F27F12E80341EA5541FCF77A
:1051E00067FDFCF7D3FF40F6B8339E4210D9099B08
:1051F000089A002BCCBF00230123002AD4BF002231
:10520000012293420CBF01234FF0FF33464A137033
:1052100044F26662444B93F900305343A3EB090315
:1052200083FB0030DB0B43EA40439944BAF1000FA3
:1052300040F396800E9BA7EB08071D1B87FB0732E8
:105240001946C5FB0512B1F1004F72F10002B4BF5F
:105250000B466FF000434FF080429342C0F07B81D9
:105260000024002A40F07981002C79D0E917E61754
:10527000C90322463346E80341EA5541FCF718FDCD
:10528000F917C90322463346054641EA5741F80358
:10529000FCF70EFD089B099A83FB0043C5FB024304
:1052A000DFF888806442224A63EB4303E40B126810
:1052B00044EA434498F9003006465343B3F5005F8F
:1052C00038DCCDE9005005A90EC90120FCF7A4FF88
:1052D000CDE9005605A907460EC94FF0FF30FCF78F
:1052E0009BFF3B1A002BB8BF5B42042B22DD874299
:1052F000ACBF4FF0FF37012788F800701AE000BFFD
:10530000081C0020E41B0020B0280020F41B002013
:105310009C280020A0280020A4280020041C002095
:10532000001C0020FC1B0020F81B0020F91B0020A3
:105330009828002004F5B3441934B4F5004FA8BFF1
:105340004FF40044B94B24EAE47493F900305C4311
:10535000A4EB090484FB0A4AE40B44EA4A44A1444E
:10536000B34D1BF580322C684FEAEB73A9EB0400B8
:1053700043F1000380FB0B01FCF79AFC0444B4F5F5
:10538000004FA8BF4FF40044AA4BAB499C42B8BFA2
:105390001C462C608BFB0442A4FB014301FB02333F
:1053A000E60E46EA43160A9B06EBD67403EB64044A
:1053B000240C04F5804080B2FCF7BEFE80FB0B534A
:1053C000ED0B45EA43450C9B9C4F2B4420461D4664
:1053D0003B60FCF7B1FE80FB0B43E40B44EA434423
:1053E0000D9B6FF00F0C23441C46954B954A1C6097
:1053F0000A9B4FEA25391E44ACEB253CA9F1F0038A
:1054000016606FF007069C45B8BF9C464FEA2438EB
:10541000A6EB2436A8F148039E42B8BF1E46BCF155
:10542000000F25DDBCF10E0FA8BF4FF00E0C4FEAA8
:10543000EC71C9030E2200234FEACC3041EA5C41F3
:10544000FCF736FCFCF7A2FE4FF05A0C8BFB000178
:10545000A0FB0C0E00234FF448120CFB01E1FCF7FB
:1054600027FC19F1100F754BA8BF404205441D6081
:10547000002E734D1FDD0E2EA8BF0E26F117C90397
:105480000E220023F00341EA5641FCF711FCFCF721
:105490007DFE5A268BFB0001A0FB060C4FF4481240
:1054A000002306FB01C1FCF703FC18F1080FA8BF9D
:1054B000404204442C603868634BB0F5C81FA8BF55
:1054C0004FF4C81029689842B8BF1846B1F5482F64
:1054D000A8BF4FF4482103F548239942B8BF1946A5
:1054E00000264FF0110E594B29601C68584D5C4442
:1054F0001C60584B2A781B78DFF85CC13860002BA1
:1055000034D116B12A70534A1370544E3268A21A1D
:10551000B2F5A04F3CD2039BA3EB0B03039393E59F
:10552000029A9A423FF483AD2E6804F1FA02801B7E
:105530003B4680FB040192B2FCF7BAFB06442E60A6
:1055400075E5474BA21A1A60FCF742FE8CE5012470
:105550000E9A109BF1E592087FE6A11899424FEA56
:1055600054049CBFA4185B1A92087AE60CEBC2079D
:105570007F68E71BB7F5902FC3D30132B2FBFEF66D
:1055800006EB0616921B013B0126D2B2DBB2B6E750
:10559000112B34602A782F4E08D10132B2FBF3F37D
:1055A00003EB0313D21A10232A7033701122284BF5
:1055B00035781B7800122B44B3FBF2F202EB021297
:1055C0009B1A254A091222F83300013502EBC30267
:1055D0005180546035709EE7089B224A1B5D5278CB
:1055E000134200F09880029B95F85AE095F85B0012
:1055F000AEEB0302039BC31A5B4302FB023242453C
:1056000000F28C8040F28443C2EB0222B2FBF3F240
:10561000D243D2B202FB0222C2F3072200210DF1D3
:10562000AC0C22AF0DF1600A53E000BFF91B002063
:10563000982800200080FFFFAC1BDA01041C00202A
:10564000001C0020FC1B00200000E7FFF01B0020D6
:10565000E91B0020E81B00205C1B0020EC1B002045
:10566000F41B0020AF0E00203CF902BB37F9023BCF
:10567000A0EB0B0B0BFB0BFBAEEB030303FB03B32A
:10568000434525D84FF022090DF1740B1BF801B0EA
:1056900009FB0BFB4FF06409BBFBF9FB0BFB0BFB9E
:1056A0005B453DBFC3EB0323B3FBFBF3DB430023AD
:1056B0003CBFDBB203FB033311F80AB038BFC3F3BE
:1056C00007230BFB0333C3F307239A4238BF1A4661
:1056D0000131CBB29E42C7D8059B8DF85830079B4D
:1056E0008DF85930069B03FB022212128DF85A20C6
:1056F0001698FEF777FEC0F30722C0F307438DF834
:105700005C008DF85D208DF85E30C1B2DBB22046C2
:10571000D2B2FEF793FF0134023537E400227DE771
:105720002878FFF733F8ADF874005FFA80F8C0F31B
:1057300007240FB1FDF788FDFEF7A6F9B37896F8B8
:1057400001B096F803A046460293F3B29C427FF65E
:1057500093A8A24A6978925D0A423BD04FF00009B3
:105760004F46DFF87C8298F80210FF290DD098F898
:105770000320B8F80000039308F046F8384480B2DC
:10578000FF2828BFFF20039BC7B209F10309B9F521
:10579000C07F08F10608E6D1029BAAEB070727EABB
:1057A000E7778DF889308DF888B08DF88A70229867
:1057B000FEF718FEC0F30722C0F307438DF8AC00D4
:1057C0008DF8AD208DF8AE30C1B2DBB23046D2B22A
:1057D000FEF734FF0136B8E72878FEF7D7FFC0F3AD
:1057E0000723ADF87400C4B2029377B100237D4A59
:1057F000D3705372D3735375D37682F8213082F805
:10580000273082F82D30784A1370784BD3F8009007
:10581000774B1A6891451BD0764AC3F80090FEF783
:105820001DF91378002B40F090801070FDF74AFFAF
:105830000021DFF8C4810F4645466B4B15F810ABCD
:105840001A78CBB29A4500F290800FB1664B1A706D
:105850006A4BDFF8AC811A7E08EB440703925A7E4C
:105860009B7E06920593029AE3B29A427FF693AB2F
:105870005A4B644A1B5D5278134263D000254FF0A7
:10588000E00B584E06F1300AF378002B33D0082194
:105890004FF4D270FCF730FC3388A9EB03039BB2C2
:1058A000984240F29980B27897F85BC02C3208EBAE
:1058B0004202D1788C4540F08F80917897F85A2039
:1058C000914236BF521A891A91B20BFB03F2B2FB16
:1058D000F0F228BF89B292B28A427DD3282A38BF1B
:1058E0002822283A92B28A4276D8C3EB0323B3FB2C
:1058F000F0F3DB43DBB22B44FF2B28BFFF2306363C
:10590000B245DDB2C0D1039B8DF88830069B8DF87F
:105910008930059B03FB05552D128DF88A5022987E
:10592000FEF760FDC0F30722C0F307438DF8AC001B
:105930008DF8AD208DF8AE30C1B2DBB22046D2B2C8
:10594000FEF77CFE013402378DE700287FF46DAF4F
:10595000244BD8705872D8735875D87683F82100C4
:1059600083F8270083F82D005FE701F10C0008EBB6
:10597000400043788078002643EA00231948A9EBC9
:105980000303864615F801CF9BB290F803B0BBF134
:10599000000F07D090F802B0E34503D1B0F800B093
:1059A0009B4517D00336182E00F10600EDD10620D6
:1059B00000FB02F62EF806304FF001030EEB060056
:1059C000C3704FF000030127013280F802C0037159
:1059D00002F00702013134E700238CE79EDF000864
:1059E000F22B0020842B0020141C0020EC2B002024
:1059F000101C00200C1C0020BC2B0020F32E0020CB
:105A0000A4DE0008AF0E00202878FEF7BFFEC0F32A
:105A10000723ADF87400C4B2029377B100237E4A25
:105A2000D3705372D3735375D37682F8213082F8D2
:105A3000273082F82D30794A1370794BD3F80090D3
:105A4000784B1A6891451BD0774AC3F80090FEF74F
:105A500005F81378002B40F095801070FDF732FEAA
:105A60000021DFF8C8810F4645466C4B15F810AB96
:105A70001A78CBB29A4500F295800FB1674B1A7035
:105A80006B4BDFF8B081DA7E08EB440703921A7F94
:105A90005B7F05920693029AE3B29A427FF67BAA55
:105AA000654B664A1B5D5278134268D000254FF063
:105AB000F00B594E06F1300AF378002B38D009214B
:105AC00040F28A20FCF718FB3388A9EB03039BB252
:105AD000984240F29E8096F802C097F85A100CF156
