:020000040800F2
:1000000000040020B9010008BB010008BB01000882
:10001000BB010008BB010008BB010008BB010008D0
:10002000BB010008BB010008BB01000825AB0008AC
:10003000BB010008BB010008BB01000839B0000883
:10004000BB010008BB010008BB010008BB010008A0
:10005000BB010008BB01000859AE000881AE0008D2
:10006000A9AE0008D1AE0008F9AE0008BB01000837
:10007000BB010008BB01000815BB0008BB0100085C
:1000800021AF0008BB010008BB010008BB0100084C
:10009000BB010008BB010008BB010008BB01000850
:1000A000BB010008BB010008A9B90008BDB90008E0
:1000B000BB010008BB010008BB010008BB01000830
:1000C000BB01000885AF0008BB010008BB010008A8
:1000D000BB010008BB010008BB010008BB01000810
:1000E00072B6264880F30888254880F30988254899
:1000F00025490860022080F31488BFF36F8F04F055
:1001000021F80AF0C1FB4FF0553020491B4A9142BB
:100110003CBF41F8040BFAE71D49194A91423CBF24
:1001200041F8040BFAE71B491B4A1C4B9A423EBF9D
:1001300051F8040B42F8040BF8E700201849194A5B
:1001400091423CBF41F8040BFAE70AF057FC0AF071
:1001500053FC154C154DAC4203DA54F8041B884788
:10016000F9E708F0DBFC124C124DAC4203DA54F80C
:10017000041B8847F9E70AF040BC00000004002097
:10018000000C00200000000808ED00E00000002046
:100190000004002034D70008000C0020AC1100201F
:1001A000B011002050310020E0000008E0000008FD
:1001B000E0000008E000000892E700F000F8FEE729
:1001C0002DE9F04FC1F80CD0C3689D46BDE8F08F13
:1001D000002383F311882846A04700200AF08AFCF8
:1001E000FEE70AF037FC00DFFEE7000038B5124BEF
:1001F00004461D682A6B1AB10023C2E9044338BDC6
:10020000182000F099F80246286378B100210B23EA
:1002100001209381C2E90401084B0949094DC2E953
:10022000011300231560C2E9044338BD4621064B83
:10023000064800F053F800BF000C0020ECDE05007B
:1002400034126DE60E33CDAB6CD6000884D60008B0
:1002500038B5194B1C68226B8AB113691749546968
:1002600003FB01F1164800FB0411A3FB003001332E
:1002700041EB0001C2E9043121F0004038BD1820F3
:1002800000F05AF80246206388B1012400250B23B0
:100290000A480C49C2E90445116001460A4D0B4C5D
:1002A00093810B4BC2E90154C2E9043138BD52219C
:1002B000084B094800F012F8000C00202DF45158AA
:1002C0002D7F954C0E33CDAB34126DE6ECDE050080
:1002D0002E7F954C6CD6000884D60008144600B5D5
:1002E0001A460A4B0D461B6885B0DE6803464CB1C2
:1002F00007490191304607490294009500F03AF809
:1003000000F012F804490C46F3E700BF000C00208F
:10031000B0D60008C0D60008BCD6000808B5134601
:100320000022FFF7DBFF00BF062008B500F006FC47
:1003300001200AF079FD00BF024B0146186800F069
:10034000EDBE00BF000C0020024B0146186800F013
:1003500065BF00BF000C00200CB400B583B004AB37
:1003600053F8042B019300F055F803B05DF804EB4B
:1003700002B070470EB400B5074A82B003AB014625
:10038000106853F8042B019300F044F802B05DF8B4
:1003900004EB03B0704700BF000C00209368013BE2
:1003A000002B936005DAD2F818C0634507DB0A29F1
:1003B00005D01368581C106008461970704700F08B
:1003C00063B900BF9BB1F8B5134406460F46541EEF
:1003D0005D1E01E0AC4208D03A46304614F8011FD9
:1003E000FFF7DCFF431CF5D1F8BD0020F8BD00206D
:1003F000704700BF936810B514461BB91846002318
:10040000636010BD00F08EF90023A36000236360D9
:1004100010BD00BF2DE9F04FA1B08B4691461C46A0
:10042000049018B1036A002B00F01381BBF80C3064
:10043000180740F18E80DBF81030002B00F0898027
:10044000002343F220020D9399F800300127824ED9
:100450000794ADF83920002B73D04D4603E015F812
:10046000013F002B7FD0252BF9D1B5EB090A7DD1B7
:100470002B78002B65D000234FF0FF320135CDE9FA
:10048000092308930B938DF863301E9306E02546ED
:10049000089B801B07FA00F0034308932C460522B3
:1004A00014F8011B304601F021FBA1460028EED1D3
:1004B000089BD90644BF20228DF863201A0748BF45
:1004C0002B22297848BF8DF863202A2964D1079A06
:1004D0001168043200290792C0F296800B91697866
:1004E0002E296FD05D4C0322204601F0FFFA38B16F
:1004F0004022089B001B8240134309F10109089325
:1005000019F8011B062256488DF8381001F0EEFA52
:1005100000287FD0534B002B69D007A900915A4681
:100520000498514B08A9AFF300800390039B01335B
:1005300007D00D9B039A13440D9399F80030002BBC
:100540008BD1BBF80C305B060AD40D9821B0BDE806
:10055000F08F5946049800F05FFF00283FF470AF19
:100560004FF0FF30F2E7B5EB090AEAD009F1FF38A6
:1005700005954546DDF8108001E0A2453ED92C46A0
:100580005A46404615F8011FFFF708FF02340130B4
:10059000A4EB0904F1D1D4E7A1F13002092A88BF04
:1005A000A9469DD80B9B00E00134217803EB83031F
:1005B00002EB4303A1F13002092AF5D92E29A14605
:1005C0000B938FD199F801102A292DD1079B09F19E
:1005D00002001A680433002A0793B8BF4FF0FF33B4
:1005E00099F8021009928146B8BF09937AE7079BF0
:1005F000073323F00703083307939AE70D99059D06
:1006000051442B780D9134E7494243F002030B919A
:10061000089364E707A900915A460498124B08A969
:1006200001F096F8039081E70023A1F13002092A36
:1006300009F1010909933FF655AF19F8011F03EBC2
:10064000830302EB4303A1F13002092AF5D9099390
:1006500048E700F0F9FBE9E6F0D60008F8D6000814
:10066000FCD6000800000000C50300088C4600B559
:1006700086461346034A714610685DF804EB6246ED
:10068000FFF7C8BE000C0020F8B506460D4614461C
:1006900010B1036A002B37D0A269A389A2601A07A0
:1006A00019D52369BBB122686169D31AEDB29942A9
:1006B0002F4620DD0133A1680139A160511C216062
:1006C000157062699A420DD0A389DB0701D50A2D06
:1006D00008D03846F8BD2146304600F09DFE38B9B6
:1006E0002369E0E72146304600F0B0FC0028F0D056
:1006F0004FF0FF37EDE72146304600F0A7FC002819
:10070000F6D101232268D6E700F09EFBC4E700BFC4
:1007100003460A46024908681946FFF7B5BF00BFFD
:10072000000C00209368002B00F0F0802DE9F04FC2
:10073000B1F90CC090461CF0080F81460C4683B0FE
:100740002BD00B694BB31CF00207D8F8006032D0F5
:100750004FF0000A5546D4F828B0216AAB4FC5B116
:10076000BD422B46524628BF3B464846D847002844
:1007700040F3C280D8F8083082441B1A2D1AC8F8FA
:100780000830002B00F0AE80D4F828B0216A002D8C
:10079000E6D1D6E900A50836E1E72146484600F053
:1007A0003BFE002840F0AD80B4F90CC0D8F80060E2
:1007B0001CF00207CCD11CF0010A63D15746236814
:1007C000A16818468B46002F58D01CF4007F00F01B
:1007D000B180B9420A4600F2DD801CF4906F2FD040
:1007E000216962695D1A02EB420202EBD2726B1C54
:1007F00052103B44934292BF93469B461A461CF4C8
:10080000806F00F0E6801146484600F087FC002823
:1008100000F0F5802A462169019000F05FFEA28970
:10082000019B22F4906242F08002A2815819C4F820
:1008300014B0ABEB05053A46BB462361A5602060CA
:100840003D4600275146019200F046FDA16823680D
:10085000019AA1EB0B011A44A1602260D8F808307C
:10086000AA445B1BC8F80830002B3BD02368A16862
:1008700018468B46B4F90CC0002FA6D1D6E900A7C4
:1008800008369EE73846BB463D46002D40D000283E
:1008900045D03A46D4E904C32068AA4228BF2A4674
:1008A0006045A16804D901EB030A524500F3828038
:1008B000934272DC5A464846216AD4F828C0E04781
:1008C000B0F1000A18DDB7EB0A070FD00120D8F805
:1008D0000830D344A3EB0A03A5EB0A05C8F8083097
:1008E000002BD2D1002003B0BDE8F08F214648464E
:1008F00000F0ACFB0028EAD0B4F90C3043F0400320
:10090000A3814FF0FF3003B0BDE8F08F00207047A7
:10091000756833460836002DFAD0D3F800B02A4661
:100920000A21584601F0E2F8002865D00130A0EB1A
:100930000B07AEE722699A4214D36569BD4211D80C
:100940006FF00043BB4228BF3B4693FBF5F3524692
:1009500005FB03F34846A56A216AA847051ECBDDBF
:100960007F1B7BE7B94228BF39460D4618465146E2
:100970002A4600F0B1FCA1682368491B2B44A16002
:1009800023600029ECD12146484600F05FFB002897
:10099000E6D0B1E7BB463A4652E75946019200F02D
:1009A0009BFC019AA36892469B1AA3602368134498
:1009B000236088E75946524600F08EFC23682146A2
:1009C00053444846236000F041FB00283FF47BAFCE
:1009D00092E7484600F0F8FD034600287FF426AF72
:1009E0004846216900F01AFC0C22B4F90C30C9F811
:1009F000002023F0800381E76A1C17464AE70C2297
:100A0000B4F90C30C9F8002078E700BF00FCFF7F84
:100A100038B5C46B0CB1002038BD8021054600F00C
:100A20007DFB0246E86330B1031F7C3243F8044F7C
:100A30009342FBD1EFE74FF0FF3038BD30B51F29AF
:100A4000054683B008D8C36B0C4653B153F8240055
:100A500043F8242003B030BD162303604FF0FF306D
:100A6000F8E78021019200F059FB019A0346E86300
:100A70000028F3D0011F00F17C05002041F8040F8D
:100A8000A942FBD1E2E700BF1F2938B505461ED8B1
:100A9000C26B0C466AB152F8213053B1012B06D01B
:100AA000591C10D00021204642F8241098470020FD
:100AB00038BD284601F0CCF8224601462846BDE85C
:100AC000384001F0B1B8162301202B6038BD162341
:100AD0004FF0FF302B6038BD1F292BD838B5C36BC2
:100AE0000C460546A3B153F8242003EB84034AB116
:100AF000511C0BD0012A07D0002520461D609047CD
:100B0000284638BD012038BD032038BD022038BD3D
:100B1000802100F003FB0346E86340B100201A1F68
:100B200003F17C0142F8040F8A42FBD1DBE74FF06E
:100B3000FF3038BD4FF0FF30704700BF38B5134B62
:100B40001F281D681DD8EA6B044662B152F8203098
:100B50004BB1012B05D0591C0FD0002142F82010B9
:100B60009847002038BD284601F072F82246014619
:100B70002846BDE8384001F057B8162301202B6005
:100B800038BD16234FF0FF302B6038BD000C00201D
:100B9000114B1F2870B51E6808D8F36B04460D462C
:100BA0004BB153F8240043F8245070BD1623336032
:100BB0004FF0FF3070BD8021304600F0AFFA0346A1
:100BC000F0630028F4D00021021F7C3042F8041F9B
:100BD0008242FBD1E5E700BF000C002038B50B4B8B
:100BE0001D68EC6B0CB1002038BD8021284600F058
:100BF00095FAE86338B1031F00F17C0243F8044F13
:100C00009342FBD1EFE74FF0FF3038BD000C0020DE
:100C100038B5174B1F281D6826D80446E86BA0B1CD
:100C200050F8242000EB84034AB1511C0BD0012A58
:100C300007D0002520461D609047284638BD01207A
:100C400038BD032038BD022038BD8021284600F081
:100C500065FAE86340B10021031F00F17C0243F80C
:100C6000041F9342FBD1DBE74FF0FF3038BD00BFDC
:100C7000000C002000207047024A0349034800F09E
:100C8000A9BB00BF500C00204D100008040C002030
:100C90000C4B416810B59942044601D000F0D6F9DA
:100CA000A168094B994202D0204600F0CFF9E168D3
:100CB000064B994204D02046BDE8104000F0C6B96A
:100CC00010BD00BFB01100201812002080120020BB
:100CD000002070472DE9F84300250423294C2A49B8
:100CE0000822C4F8381104F15C002946DFF89C9012
:100CF000DFF89C80274F284EC4E90335C4E900552E
:100D0000C4E90555A560656600F0C6F8234B0822C6
:100D1000294604F1C4006367C4E90849C4E90A87A5
:100D2000C4E91A55C4E91E5526632567C4F8CC509A
:100D3000C4F8805000F0B0F8194B2946C4F8DC30F4
:100D4000082204F1680304F59670C4F88830C4E9F9
:100D50002398C4E92576C4E93455C4E93855C4F864
:100D6000D850C4F83451C4F8E85000F095F804F1B4
:100D7000D003C4E93D98C4E93F76C4F8F030BDE83B
:100D8000F88300BFB0110020790C0008851B000813
:100D9000AD1B0008ED1B0008111C00080900010034
:100DA00012000200F8B5254B0646D3F83831002B67
:100DB0003CD0234FD7E90134013B04D51DE05A1C38
:100DC00004F1680419D0B4F90C50013B002DF6D1A0
:100DD0001C4B08222946C4E90155C4E90455E360C7
:100DE00065662560A56104F15C0000F055F8C4E972
:100DF0000D55C4E912552046F8BD3D680DB12F468A
:100E0000D8E74FF4D671304600F088F9044680B137
:100E100004230560294625460C304FF4D072A060AB
:100E2000636000F039F83C602F46C3E7FFF752FFDC
:100E3000BFE70C2338603360DDE700BFB01100204E
:100E4000500C00200100FFFF036A03B17047044B00
:100E5000044AD3F838310262002BF7D13AE700BFD9
:100E6000B0110020910C0008704700BF704700BF10
:100E70000020024A024900F0ADBA00BF500C002029
:100E8000750C00080020024A024900F0A3BA00BF16
:100E9000500C0020D10C000870B5860747D0541EB6
:100EA000002A3ED00346CAB201E0013C39D303F820
:100EB000012B9D07F9D1032C2CD9CDB205EB0525CB
:100EC0000F2C1A4605EB054534D9A4F1100C2CF073
:100ED0000F0603F1100EB6444FEA1C1CC2E9005580
:100EE000C2E9025510327245F8D10CF1010214F03A
:100EF0000C0F03EB021204F00F0C13D0ACF104033F
:100F000023F003030433134442F8045B9342FBD100
:100F10000CF003042CB1C9B21C4403F8011BA3421A
:100F2000FBD170BD64461346002CF4D1F9E70346AB
:100F30001446C0E7A446E1E7F8B5B1F90C300C4619
:100F40001E07074639D44A68002A53DDE56A002D9A
:100F500031D000223E683A6013F48052216A55D1A4
:100F600001233846A847451C024663D0B4F90C302B
:100F7000E56A216A580705D56368D21A636B0BB11D
:100F8000236CD21A00233846A847421C40D00022C6
:100F9000236962602360A389DB0400D56065616B0F
:100FA0003E6041B104F14403994202D0384600F05A
:100FB00035F9002363630020F8BD0E69002EFAD0D6
:100FC0009B0718BF00230D6808BF4B690E60AD1B5F
:100FD0008B600CE02B463246D4F828C03846216A94
:100FE000E047B0F1000CA5EB0C05664406DD002DD2
:100FF000F0DCE0E70A6C002AA8DCDCE7B4F90C308E
:1010000043F040034FF0FF30A381F8BD626DB1E7BC
:101010003968B4F90C301D29F2D80B4ACA40D507FB
:10102000EED50022626022692260DA04B7D5002979
:10103000B4D0B4E73B68002B98D01D2B01D0162B01
:10104000DCD13E60B7E700BF010040200B69B3B1BF
:1010500010B5044682B008B1036A5BB1B1F90C3037
:1010600013B9002002B010BD204602B0BDE8104008
:10107000FFF762BF0191FFF7E7FE0199EEE700205D
:10108000704700BFB8B138B50D4A0369044615680A
:101090002BB10DB12B6A53B1B4F90C300BB9002050
:1010A00038BD21462846BDE83840FFF745BF2846F1
:1010B000FFF7CAFEF0E7034A0349044800F08AB983
:1010C000000C0020500C00204D100008040C0020E3
:1010D00070B5114E054633680C46BBB12146284613
:1010E00009F082FE431C01460CD0C41C24F003040A
:1010F000A04205D02846611A09F076FE013001D0E1
:10110000204670BD4FF0FF34204670BD194609F0EF
:101110006BFE3060E2E700BFEC1200202DE9F843DF
:10112000CD1C25F0030508350C2D38BF0C25002DEE
:10113000064618DBA94216D8DFF8DC8000F04AFC2E
:10114000D8F80420A2B1144603E0636822467BB1BC
:101150001C4623685B1BF8D40B2B1FD89442636892
:1011600054D053600CE00C2333600020BDE8F883BA
:1011700029463046FFF7ACFF431C044619D00560F2
:10118000304600F029FC04F10B00231D20F007007D
:10119000C21A1CBF1B1AA350BDE8F8836119944200
:1011A000256014BF5160C8F80410635163684B6038
:1011B000E6E7D8F804701FB33C467F68002FFBD1E8
:1011C00023683946304604EB030909F00DFE8145DA
:1011D00016D123683046ED1A2946FFF779FF013012
:1011E0000ED02368D8F804202B442360536883B1C1
:1011F000A34203D01A465B689C42FBD10023B0E7B0
:101200000C233046336000F0E7FBAEE7C8F804304B
:10121000B6E7C8F80470B3E7EC120020002950D0FC
:1012200038B551F8043C0C1F002BB8BFE418054634
:1012300000F0D0FB274A13682BB1A3420CD92168D8
:10124000601883422CD0284663601460BDE83840A3
:1012500000F0C2BBA3420FD81A465B68002BF9D13D
:1012600011685018844217D02CD36360546028460C
:10127000BDE8384000F0B0BB11685018A04214D04F
:1012800020D8216860188342EFD118685B68084451
:10129000C4E900035460EAE723680B441360E6E7FF
:1012A00018685B6808442060CDE720680144501846
:1012B00083421160DBD1D3E900040144C2E9001488
:1012C000D5E770470C2328462B60BDE8384000F076
:1012D00083BB00BFF012002088420ED98B188342D6
:1012E0000BD900EB020C002A6DD0624613F801CD39
:1012F000994202F801CDF9D170470F2A0FD8034661
:1013000002F1FF3C002A5ED00CF1010C013B8C4441
:1013100011F8012B614503F8012FF9D1704740EA1C
:1013200001039B0750D1A2F1100370B501F1200C0D
:1013300023F00F0501F1100E00F11004AC441B095D
:101340005EF8105C0EF1100E44F8105C5EF81C5C48
:10135000103444F81C5C5EF8185C44F8185C5EF8C5
:10136000145CE64544F8145CEAD1013312F00C0F2A
:1013700001EB031102F00F0400EB031328D08E469B
:10138000043C24F003064FEA940C1E441C1F5EF834
:10139000045B44F8045FB442F9D10CF1010402F09B
:1013A000030203EB840301EB840102F1FF3C4AB129
:1013B0000CF1010C013B8C4411F8012B614503F841
:1013C000012FF9D170BD7047034602F1FF3C9BE746
:1013D0002246EAE72DE9F8434FF0000980460F4620
:1013E0001646D6E90154013D10D4A389012B08D932
:1013F000B4F90E30013304D021464046B84749EADB
:101400000009013D6B1C04F16804EED13668002E22
:10141000E7D14846BDE8F88338B52F4B05461B6831
:101420000C4613B11A6A002A4BD0B4F90C301807D5
:101430001CD5226922B313F0010107D00020616995
:10144000A0604942A1613AB1002038BD980758BF59
:101450006169A160002AF7D1190658BF1046F4D57A
:1014600043F04003A3814FF0FF3038BDD9062CD59F
:101470005A0712D4226943F00803A381002ADAD163
:1014800003F42071B1F5007FD5D02146284600F045
:10149000A5FAB4F90C302269CDE7616B51B104F1C2
:1014A0004402914204D02846FFF7B8FEB4F90C304C
:1014B000002262630021226923F02403C4E9002191
:1014C000D9E71846FFF7C0FCAFE7092243F0400315
:1014D0002A60A381C7E700BF000C0020844641EAD0
:1014E000000313F0030349D1403A23D30B68036090
:1014F0004B6843608B688360CB68C3600B69036192
:101500004B6943618B698361CB69C3610B6A036279
:101510004B6A43628B6A8362CB6AC3620B6B036361
:101520004B6B43638B6B8363CB6BC3634030403146
:10153000403ADBD230320BD30B6803604B68436018
:101540008B688360CB68C36010301031103AF3D2DF
:101550000C3205D351F8043B40F8043B043AF9D26D
:10156000043208D0D2071CBF11F8013B00F8013B40
:1015700001D30B8803806046704700BF082A13D34D
:101580008B07B1D010F00303AED0C3F10403D21A1D
:10159000DB071CBF11F8013B00F8013BA4D331F875
:1015A000023B20F8023B9FE7043AD9D3013A11F8F5
:1015B000013B00F8013BF9D20B7803704B78437084
:1015C0008B788370604670472DE9F041144641B333
:1015D0000AB306460D4600F01FFB8442074602D8B8
:1015E000B4EB500F13D821463046FFF797FD8046E5
:1015F00050B1BC422246294628BF3A46FFF76EFF4B
:1016000029463046FFF70AFE4046BDE8F081A8466D
:101610004046BDE8F081A046FFF700FE4046BDE829
:10162000F0811146BDE8F041FFF778BD2DE9F84F94
:1016300092461F460A698B680C469A42B8BF1A4602
:10164000CAF8002091F843300646DDF8289013B11F
:101650000132CAF80020226891065FD5DAF800301E
:101660000233CAF80030226812F0060F11461DD16D
:10167000E1689942D8BF114618DD4FF0000804F127
:10168000190B05E0E568DAF80030ED1A45450CDD88
:1016900001235A4639463046C847013008F101084F
:1016A000F0D14FF0FF30BDE8F88F216894F8433057
:1016B000003B18BF01238A060AD53021E21882F8C0
:1016C000431094F845105A1C2244023382F8431008
:1016D0003946304604F14302C8470130E1D0D4E92D
:1016E00002202368DAF8005003F00603042B216976
:1016F0001BD08A4220DD4FF00008521A904400258A
:101700001A3401E0454517DA0123224639463046AE
:10171000C847013005F10105F4D1C2E712F0060F08
:101720000DD0003B18BF0123D2E7401B8A4220EABC
:10173000E078E2DC0028E2DC0020BDE8F88FE16818
:10174000DAF800309942D8BF114696DCAEE700BF08
:101750002DE9F04717460A7E84B00C4606469846A7
:101760000C9D01F1430C002A35D0A2F15803D9B2E7
:10177000202969D8202B67D8DFE813F0E60066003F
:101780006600660066006600660066006600660029
:101790006600AC00700066006600660066007000BF
:1017A000660066006600660021008300C6006600D1
:1017B0006600B6006600830066006600EC002B68D9
:1017C0002268181D6169286010061B6802D4520641
:1017D00000F1E08019600023E14623613B46214689
:1017E0003046CDF8008003AAFFF720FF013020D05B
:1017F0004A46394630462369C047013019D023682C
:10180000E0689B07DDF80C9018D5484516DD0025EB
:1018100004F1190A04E0E068A0EB0903AB420DDD16
:101820000123524639463046C047013005F10105D3
:10183000F1D14FF0FF3004B0BDE8F0874845B8BFA4
:10184000484604B0BDE8F087012084F8422004F146
:1018500042090023206184F84330BFE72A682368E7
:10186000111D1806296002D4590600F195801068F0
:10187000014600286268C0F293804FF00A0E534878
:1018800015E020682B6810F0800F53F8041B02D17C
:10189000400648BF89B26F2A14BF4FF00A0E4FF0BE
:1018A000080E4A482B600023626884F84330002AFF
:1018B000A26051DB236823F00403236000294BD18D
:1018C000002A7BD1E146BEF1080F56D0ACEB0903EC
:1018D000236183E72A680120116804322A6004F139
:1018E000420984F84210B4E72B6800211A1D2A60CF
:1018F000D3F800906268484600F0F8F8002863D0FA
:10190000A0EB09006060A4E7236843F02003236094
:1019100078222F4884F845202A6813F0800F52F867
:10192000041B03D113F0400F18BF89B22A60DA07F5
:1019300044BF43F02003236019B9236823F0200338
:1019400023604FF0100EAEE75823204884F845304E
:101950002368E1E72368DBE77546E146B1FBF5F371
:101960000A4605FB131A194610F80A30AA4209F86C
:10197000013DF3D2BEF1080FA8D12368DD07A5D53C
:10198000626823699A42A1DC302309F1FF3989F8A2
:1019900000309BE719801EE7B2F90010084668E79F
:1019A0002D20002AA26084F8430002DB23F0040308
:1019B00023600A250548AE464942CEE7037804F184
:1019C000420984F842307EE7606842E704D70008A5
:1019D00018D70008704700BF704700BF70B5B1F955
:1019E0000C300C46990796B007D5012204F1470345
:1019F000C4E90432236016B070BDB4F90E10054678
:101A0000002929DB6A4609F0E0F9002822DB4FF4BF
:101A100080612846019EFFF781FB88B3A38906F405
:101A2000704643F08003A3814FF48063B6F5005FF6
:101A3000C4E904032060DED12846B4F90E1009F091
:101A4000D0F90028D7D0A38923F0030343F0010382
:101A5000A381D0E7B4F90C3013F0800F14BF4026F7
:101A60004FF4806628463146FFF758FB40B1A38902
:101A7000C4E9040643F080032060A38116B070BD62
:101A8000B4F90C309A05B6D4012123F0030304F114
:101A9000470243F00203C4E90421A3812260AAE7BC
:101AA00070B50C46B1F90E10154600291E4696B0C9
:101AB0000FDB6A4609F089F900280ADB019B4FF425
:101AC000806203F47043A3F50053B3FA83F35B0918
:101AD00007E0A289002312F0800F14BF40224FF4C8
:101AE0008062002033602A6016B070BD5FFA81FC0E
:101AF000810744D00346511E22B909E09A0709D054
:101B0000013905D31846027801336245F6D1704792
:101B100000207047184603290CD80029F8D0034646
:101B2000014401E08B42F3D0184613F8012B6245C3
:101B3000F8D1704710B50CEB0C24024604EB0444BA
:101B400002E00439032915D9104652F8043B6340DA
:101B5000A3F1013E2EEA030313F0803FF1D00346C8
:101B6000014401E08B4208D0184613F8012B62456E
:101B7000F8D110BD10460029F1D1002010BD11464A
:101B8000C9E700BF10B50C46B1F90E1009F014F901
:101B9000002803DB636D0344636510BDA38923F450
:101BA0008053A38110BD00BF002070472DE9F04194
:101BB0000C46B1F90C101F46CB05054616460BD452
:101BC00021F48051A1813B4632462846B4F90E10DB
:101BD000BDE8F04109F0F5B8B4F90E100223002277
:101BE00009F0F1F8B4F90C10EAE700BF10B50C46A3
:101BF000B1F90E1009F0E7F8B4F90C30421C0EBF31
:101C000023F4805343F480536065A38110BD00BF6B
:101C1000B1F90E1009F0CEB851F8043C181F002B92
:101C2000BCBF0B58C018704770B50026074D04465E
:101C3000084611462E6009F001F9431C00D070BD22
:101C40002B68002BFBD0236070BD00BFF412002076
:101C500009F0FEB8032A30B415D941EA0004A407FC
:101C600084460B4604D0541E0FE0043A032A08D9D8
:101C70001946604653F8044B5CF8045BA542F4D067
:101C8000F1E760461946541E7AB1431E0139021924
:101C900001E09A4209D013F8010F11F801CF604515
:101CA000F7D0A0EB0C0030BC7047002030BC704770
:101CB0007BB972B90029BEBF00204FF0004106E099
:101CC00008BF00281CBF6FF000414FF0FF3000F04C
:101CD000B1B9ADF1080C6DE904CE002909DB002B88
:101CE0001ADB00F04DF8DDF804E0DDE9022304B072
:101CF0007047404261EB4101002B1BDB00F040F8D4
:101D0000DDF804E0DDE9022304B0404261EB41016B
:101D1000524263EB43037047524263EB430300F0CC
:101D20002FF8DDF804E0DDE9022304B0404261EB66
:101D300041017047524263EB430300F021F8DDF8A4
:101D400004E0DDE9022304B0524263EB4303704731
:101D500053B94AB9002908BF00281CBF4FF0FF3112
:101D60004FF0FF3000F066B9ADF1080C6DE904CE1C
:101D700000F006F8DDF804E0DDE9022304B0704766
:101D80002DE9F047089D0E4604468E46002B4CD1A7
:101D90008A429446B2FA82F362D953B102FA03FC42
:101DA000C3F1200201FA03FE20FA02F242EA0E0E0B
:101DB0009C404FEA1C47BEFBF7F11FFA8CF607FB6D
:101DC00011EE01FB06F0220C42EA0E4290420AD9C3
:101DD0001CEB020201F1FF3E80F00E81904240F2C6
:101DE0000B8102396244121AB2FBF7F007FB102292
:101DF00000FB06F6A4B244EA0244A6420AD91CEB50
:101E0000040400F1FF3280F0F980A64240F2F6802F
:101E10006444023840EA01400021A41B1DB1DC40AB
:101E20000023C5E90043BDE8F0878B4205D90DB119
:101E3000C5E9000100210846F5E7B3FA83F100295E
:101E400042D1B34202D3824200F2EE80841A66EBA2
:101E5000030201209646002DE5D0C5E9004EE2E7D9
:101E6000002B40F08C80881A0121170C96B2B0FB31
:101E7000F7FE07FB1E00220C42EA004206FB0EF0B2
:101E8000904208D91CEB02020EF1FF3802D29042B8
:101E900000F2CC80C646121AB2FBF7F007FB102204
:101EA00000FB06F6A4B244EA0244A64208D91CEBA1
:101EB000040400F1FF3202D2A64200F2B2801046C2
:101EC000A41B40EA0E40A9E7C1F120078B4022FA8B
:101ED00007FC4CEA030C26FA07FA4FEA1C48BAFB47
:101EE000F8FE06FA01F308FB1EAA1FFA8CF620FA88
:101EF00007F400FA01F90EFB06F023431C0C44EA38
:101F00000A44A04202FA01F20BD91CEB04040EF1C0
:101F1000FF3A80F08480A04240F28180AEF1020E50
:101F20006444241A98B2B4FBF8F308FB134403FB8F
:101F300006F640EA0444A64208D91CEB040403F167
:101F4000FF3068D2A64266D9023B644443EA0E40A1
:101F5000A41BA0FB02E6B4427346B04652D34FD056
:101F60005DB1B9EB030264EB080404FA07F722FA47
:101F700001F31F43CC40C5E90074002153E702FA86
:101F800003FCC3F12000C1404FEA1C47B1FBF7FE40
:101F900007FB1E1124FA00F09E403043020C1FFA8A
:101FA0008CF642EA01420EFB06F1914204FA03F478
:101FB00009D91CEB02020EF1FF382ED291422CD926
:101FC000AEF1020E6244521AB2FBF7F107FB112286
:101FD00080B240EA024001FB06F2824208D91CEBC3
:101FE000000001F1FF3814D2824212D90239604454
:101FF000801A41EA0E413AE77146F4E6104609E7D5
:10200000F145ADD2BEEB020366EB0C060138B046DB
:10201000A6E74146ECE7034698E7C646D3E7D6462F
:102020007FE7644402384BE7084614E7AEF1020E3E
:10203000624430E7704700BF4F2814D8312806D8D3
:1020400015280BD8072894BF002001207047074BA4
:102050003238C0B2C34003F001007047A0F123033F
:102060005842584170470020704700BF01100020BF
:10207000002210B5084B9C78844202D11C888C4207
:1020800007D00332B2F5C07F03F10603F3D100207D
:1020900010BD0120FCE700BF2E2C00206E22074B54
:1020A0005B5C5343FF22B3FBF2F3C3F1A0039BB28B
:1020B00058436423B0FBF3F080B27047582B0020E4
:1020C00001214FF43470FFF7E9BF02214FF4827011
:1020D000FFF7E4BF0421DC20FFF7E0BFC0F3CA0331
:1020E000410442BFC3F5FF6307339BB2084A190A94
:1020F00010B5545CC3F34602064B33F8113004FBB1
:10210000023302049BB244BF5B429BB218B210BDC3
:102110006CD4000874D40008044B186880EA40307E
:1021200080EA504080EA4010186070476811002033
:10213000002819DDB0F5004F18DA80FB0032DB0B08
:1021400043EA4243D113C217D0F5404062EB42024A
:102150005A4300FB0122A3FB00300244D81852412D
:10216000C00B40EA42407047002070474FF40040E7
:10217000704700000E4A08B511680E4B1960FFF752
:10218000CBFF44F26923B0FBF3F101FB1300A0F590
:10219000045034381060FFF7BFFF8323B0FBF3F225
:1021A00002FB1300044B5A300003186008BD00BF47
:1021B000482B0020442B0020402B00202DE9F74F16
:1021C00082461846894617469846FFF787FF044619
:1021D00008F5804080B2FFF781FF564B83461868B0
:1021E0004FF4206200FB0AF0B0F5004FA8BF4FF497
:1021F000004020EAE070C0F500400023C117FFF75F
:1022000057FD0BFB01FC4FEAEB7202FB00CC0346CF
:10221000ABFB002EF444D20B42EA4C4209EB020C19
:102220004FF016096143E21702FB0011A4FB0332D1
:102230001144DB0B43EA41436442F81884FB094331
:10224000E40B44EA43448BFB09B34FEADB3B4BEA24
:10225000434B0BFB0A0301936FF00F0304FB0AC609
:10226000A3EB0C07ACF1F00C6745B8BF67466FF005
:10227000070227EAE777111A8F42B8BF0F4648389E
:102280008742B8BF07464FF0110B0AEB4A01C1EB7A
:10229000C10101EB811149008DB24046FFF71EFFDD
:1022A000044608F5804080B2FFF718FF84FB09C19F
:1022B0004FEADC3C4CEA414C414281FB091E019B48
:1022C000C90B41EA4E4101FB0A316FF00F030CFBD1
:1022D0000A6CA3EB0C0EACF1F00CF4456FF00702A6
:1022E000B8BFF446A2EB010EE645B8BFE646483952
:1022F0008E45B8BF8E460D99DDF830C084FB014194
:10230000CCFB00417745B8BF7746644261EB4101A1
:10231000E40B44EA414408498C4207DB0BF1FF3BE4
:10232000A8441BF0FF0B1FFA88F8B6D1384603B05B
:10233000BDE8F08F3C2B002068A6FFFF431E0A2B50
:1023400007B519D9114B9978DA785B788DF80510B3
:102350008DF804308DF8062000209DF8043063F3DA
:1023600007009DF8053063F30F209DF8063063F3F6
:10237000174003B05DF804FB054900EB4000014441
:10238000032201A8FFF7AAF8E6E700BF502B0020C0
:102390002F2F0020124B1B789B08113B052B1DD8BB
:1023A000DFE803F0181C090E14030138C0B2062838
:1023B00028BF00207047431E58425841C000704754
:1023C000012808BF092018BF00207047012808BF56
:1023D0000A20F8E7012808BF0B20F4E70020704727
:1023E000502B0020054B18780B2803D00C2803D065
:1023F000FFF7D0BF06207047072070476611002006
:10240000A0F58072B2F5F85F034610B421D213F440
:10241000805F00F4007403F48062C0F3002003F4D2
:1024200000630BD000010CB140F020000AB140F075
:1024300040000BB140F0800010BC08470CB140F0E8
:1024400002000AB140F00400002BF5D040F0080073
:10245000F2E70020F0E7000010F0020F0CBF10229E
:102460004FF48012014B9A61704700BF0008004092
:10247000044B1B781BB1034103F001007047184661
:10248000704700BFE92A00200123034A83401078E7
:1024900018431070704700BFE92A00200123034A47
:1024A0008340107820EA030010707047E92A00206A
:1024B0000123034A8340107858401070704700BFD2
:1024C000E92A002001F00703C90830B501EB4101FA
:1024D000012401390A4400219C40E4B212F8015F52
:1024E00020FA01F343F300036B40234001315D40C8
:1024F00003291570F2D130BD002210B500F0070499
:10250000C00800EB4000014410468B5CE34003F040
:102510000103934001321843032AC0B2F5D110BD24
:1025200017B40C46C1B2C0F3072005280BD80E29FA
:102530000FD8C0EB00100144074A89B2204603B00F
:1025400010BCFFF7BFBF031DDBB2012B01D8034A4C
:10255000F4E703B010BC7047B32A0020B02A002073
:10256000C3B2C0F30720052882B009D80E2B0ED8BD
:10257000C0EB00101844074980B202B0FFF7BCBF9F
:102580000430C0B2012802D818460349F5E70020FC
:1025900002B07047B32A0020B02A002030B50124D1
:1025A000084D04FA01F12B7804FA00F00843C1B297
:1025B0001840814204FA02F406BF2343DBB2A3436E
:1025C0002B7030BDE92A0020054B064A1B78127893
:1025D0009A4200D17047013303F00703F8E700BFC8
:1025E000F02A0020EF2A002010B509490B7823EAD1
:1025F000000010F00704087009D1984207D0054B7D
:102600005B785B0703D5C008FFF748FF0C7010BD6F
:10261000EA2A0020EC2A0020F0B5144B144E18785A
:10262000144B35781B781843E5B1134B9B78012B7D
:1026300019D1124B124993F90030002B114BB2BF44
:102640001E27062719460C46002214F8013B0BB141
:102650000132D2B23B1B0B4413F0FF03F5D102B1A0
:1026600033702843F0BD06270649ECE72E2F0020E3
:10267000E62A0020EE2A002058110020EC2A002033
:102680000E16002006160020024A137823EA0003E3
:10269000137070472E2F0020E7284FD8DF2807D867
:1026A000312864D00ED8292857D02A2866D0704700
:1026B000A0F1E003072B41D8DFE803F01540232801
:1026C00031403C41392804D0822802D035283FD0FF
:1026D0007047324B1A7892071FD15B7813F0080FBE
:1026E00018BF292070472D4A1378D9074DD4527846
:1026F00012F0010F22D013F0100F14BF0020E320BE
:102700007047264B1B7813F0040FF3E7234A137826
:1027100059073CD45278D207EDD5E02070471F4BC3
:102720005A7891070AD51B7813F0100F14BF0020B8
:10273000E7207047194B1B781A07F5D47047174AE2
:102740001378190725D452789107EDD5E420704706
:10275000124B1B7813F0200FC2E7104B1A78920629
:1027600019D45B7813F0080F18BF392070470B4B52
:102770001B7813F0400F18BF2A207047074B1B78B7
:1027800013F0400F18BF3120704739207047E22006
:102790007047E62070473520D0E700BFEC2A0020C4
:1027A00010B5304C21784B0713D500F01402A2F17C
:1027B000040C00F01803DCF1000242EB0C02A3F160
:1027C000080CDCF1000343EB0C039A4218BF80F0C5
:1027D0000C000B0713D500F01402A2F1140C00F04A
:1027E0001803DCF1000242EB0C02A3F1180CDCF13F
:1027F000000343EB0C039A4218BF80F00C0064788E
:10280000E30713D500F0110202F1FF3C00F01803BA
:10281000DCF1000242EB0C02A3F1080CDCF1000336
:1028200043EB0C039A4218BF80F00900A30711D5AF
:1028300000F0110200F01803A2F111046242A3F1AA
:10284000180C6241DCF1000343EB0C039A4218BF01
:1028500080F00900CA0603D5030748BF00F0E7006F
:1028600010BD00BFEC2A002038B5FFF715FFB0F50A
:10287000A44F044643D2B0F5A04F80F0AE80DF28CD
:1028800016D8CC2800F28C80A7280AD8A42879D89A
:10289000012804D0031F9BB2A12B28BF002420468F
:1028A00038BDA0F1A8039BB21A2B71D90024F6E71A
:1028B000B0F5804F19D2B0F5005F80F0A180E72815
:1028C000EDD9A0F580739BB2B3F5F85FEED2C0F3FB
:1028D0000720FFF765FF0546E0B2FFF7DDFE2D029A
:1028E00005F4F85540EA050450E0C0B2FFF7D4FE05
:1028F00004F47064204340F4204084B2CFE7B0F584
:10290000A54F22D245F25F23984253D845F23F2388
:1029100098420FD845F21F23984244D8012300F073
:102920000304C0F38502A34043EA421343F40D437A
:102930009CB2B4E7012300F00304C0F38202A34079
:1029400043EA421343F40C43F2E745F2BF239842B3
:102950000AD845F29F23984200F01F0035D84AF26A
:10296000F40343EA00249AE7A0F5A543403B9BB259
:102970001F2B9BD8040204F4F85444F4204444F080
:10298000F0048CE7A0F1240444F48044A4B286E768
:10299000234B5834E4B233F8144044F488447EE7BF
:1029A00040F4A044F2E74AF2F10300F01F0443EAC6
:1029B000042474E7012300F00304C0F38202A3405F
:1029C00043EA421343F40A43B2E7FFF7E9FE040285
:1029D00004F4F85444F4005461E700F01F00FFF7DA
:1029E000DFFE03B2C20648BF1B01C4F343144FEA23
:1029F000042448BF03F0F0031C4344F41044C5E72B
:102A0000C0F30420FFF7CCFE0546E0B2FFF744FE1A
:102A10002D0205F4F855054345F40055ACB23EE7E8
:102A20008ED30008002070470020704710B5044680
:102A300010B9C90FC80110BD80EAE072A2EBE072C4
:102A400012B2002901EB02030CDB891A490191FB48
:102A5000F3F1C1F120014BB2D8B2002CBCBF40420F
:102A6000C0B2E8E75B01521A93FBF2F3C3F16003D3
:102A70005BB2F1E730B585B0C0F3074501909DF832
:102A800020001C1A1046FFF7D1FF2C44E4B2231A91
:102A90000020DBB205FB03331B128DF80630019BCF
:102AA000DAB262F30700C3F3072262F30F20C3F325
:102AB000074363F3174005B030BD84B00190002098
:102AC0008DF80420019BDAB262F30700C3F30722FA
:102AD00062F30F20C3F3074363F3174004B070475A
:102AE0001FB501909DF818001C1A1046FFF79EFFB5
:102AF000E4B2241A00208DF80440019BDAB262F39C
:102B00000700C3F3072262F30F20C3F3074363F305
:102B1000174004B010BD000084B0019003F12C00F8
:102B2000104B03EB4003D8789B782038703B4B4325
:102B300002FB003200209DF80430002AB8BF3F326B
:102B400003EBA2138DF80430019BDAB262F30700A5
:102B5000C3F3072262F30F20C3F3074363F3174065
:102B600004B0704784D400081FB5164C2C3304EB16
:102B70004304E378A478203B5343A4F1700252B29B
:102B8000002ABCBFC4F1700462B2C2F1380201FB7A
:102B9000023111EB4101019048BF7F31C0B200EB1F
:102BA000E1108DF804000020019BDAB262F3070007
:102BB000C3F3072262F30F20C3F3074363F3174005
:102BC00004B010BD84D40008024B1A78104318706A
:102BD000704700BFE027002000F052B908B5074B4E
:102BE000074A1870074B1B78C3F30103137000F0FA
:102BF00055F90322044B1A7008BD00BFB40E002023
:102C0000B30E0020502B0020AF0E0020044A137892
:102C100083F0010313700022024B1A70FFF7D4BF38
:102C2000502B0020AF0E0020064A137813F0030348
:102C300004BF05490B700121137861F30103137080
:102C4000704700BF502B0020AF0E0020054B1A78B4
:102C500092071EBF0021044A11701A7822F0030265
:102C60001A707047502B0020AF0E00200C4A03460C
:102C700008461178890711D063B1162B0CD803F0E0
:102C80003F03117863F3870111700022054B1A701E
:102C9000FFF79ABF0123F4E71623F2E7704700BF5E
:102CA000502B0020AF0E0020054B01461B789B08DF
:102CB0000133172B34BF18460120FFF7D7BF00BFE1
:102CC000502B0020064B01461B78C3F38503013BC4
:102CD00013F0FF0314BF18461620FFF7C7BF00BF4D
:102CE000502B002030B4074C0546184623789B072C
:102CF00005D06570A170E27030BCFFF765BF30BCD5
:102D0000704700BF502B0020034903464878CA781B
:102D100008308978FFF7E6BF502B0020054910B432
:102D20004C780346083CCA78A0B2897810BCFFF7FB
:102D3000D9BF00BF502B002010B4064C0346A17829
:102D4000E2780831FF2928BFFF216078C9B210BCA2
:102D5000FFF7C8BF502B002010B4064C0346A178E3
:102D6000E278083921EAE1716078C9B210BCFFF756
:102D7000B9BF00BF502B002010B4064C0346E278C8
:102D8000A1780832FF2A28BFFF226078D2B210BC97
:102D9000FFF7A8BF502B002010B4064C0346E27882
:102DA000A178083A22EAE2726078D2B210BCFFF74A
:102DB00099BF00BF502B0020044A13791033FF2B1A
:102DC00028BFFF231371FFF7FFBE00BF502B002069
:102DD000034A1379103B23EAE3731371FFF7F4BE40
:102DE000502B0020054A01205379A3F1FF014B42EB
:102DF0004B410349CB5C5371FFF7E6BE502B0020DB
:102E0000A8D10008054A01205379A3F1FF014B42E4
:102E10004B410349CB5C5371FFF7D6BE502B0020CA
:102E2000A8D10008054BC1F18041186901F20741A2
:102E300001F00F01C84000F001007047000400409D
:102E4000C1F10301490040FA01F3022213F0010F1E
:102E500014BF0E2308238A4002421ABFA3F12000A8
:102E6000C0B243F08000704730B5044D00EB400025
:102E70002C1861702A54A37030BD00BFD81A0020EE
:102E800070B5134605460E460024204632462946B4
:102E90000134FFF7E9FF512CF7D170BD2DE9F84F50
:102EA00008272B4D2B4C002695F800B095F801A073
:102EB00095F80290A4F1080831465846FFF7C0FF84
:102EC0000136042E08F8010FF6D10026A4F10408FB
:102ED00031465046FFF7B4FF0136042E08F8010FC3
:102EE000F6D1A046002631464846FFF7A9FF013635
:102EF000042E08F8010FF6D10C37B7F5757F05F1F0
:102F0000030504F10C04CED1302383F3118803238D
:102F1000114A00211370114B916213624FF48863C0
:102F20005362D362138ED2695B08B3F5886F28BFF2
:102F30004FF488639361013BD361D36A43F011037B
:102F4000D3620123936081F31188BDE8F88F00BF3D
:102F5000D81A0020A3160020841F002098160020F5
:102F600000EB4003C3EB031300EB830083B200B21A
:102F7000002807DA803800B2002800DAFF3040F37A
:102F80000720704703F18000F9E700000E4B1B7823
:102F9000D90710D49A0710D45B0710D40B4B1B78B9
:102FA0007BB11D2B4FF0500003D843431E20B3FBD1
:102FB000F0F0C0B270471420FBE72820F9E750205A
:102FC000F7E70820F5E700BFD72A0020D92A00201C
:102FD0000F4B1B78D90710D49A0710D45B0712D473
:102FE0000C4B187868B127280DD82823C000B0FBF7
:102FF000F3F050B180B2C0B270470220FBE704206A
:10300000F9E70120F7E70820F5E70120704700BF46
:10301000D72A0020D82A002008B5A0F1CD03122B12
:1030200010D8DFE803F00A1013192E2E2E2E2E2EA4
:103030002E2E1C21252B363C4100FFF7A7FF4042D6
:103040001C4BD87008BDFFF7A1FFF9E7FFF79EFF03
:103050004042184B9870F5E7FFF798FFF9E7FFF744
:10306000B7FF144B1871EDE7FFF7B2FF4042F8E7E6
:10307000FFF7AEFF40420F4B5871E3E7FFF7A8FFA1
:10308000F9E701230B4AD138517883400B43537041
:10309000D8E7094A137843F001031370D2E7064AD0
:1030A000137843F00203F8E7034A137843F004036C
:1030B000F3E700BFDA2A0020D72A002030B5414BC1
:1030C000CD2893F9035093F9024093F9041093F932
:1030D000052012D1002D01DA0022DA70D9789A7811
:1030E0000A4351B20AB9384A11701A795B7913430D
:1030F0005AB20BB9354B1A7030BDCE2802D1002D13
:10310000EADCEBE7CF2804D1002CE7DA00229A7042
:10311000E4E7D02802D1002CF8DCDFE7D92804D17D
:103120000029DBDD00221A71D8E7DA2802D1002954
:10313000D4DAF7E7DB2804D1002ACFDA00225A716B
:10314000CCE7DC2802D1002AF8DCC7E7D1380E280A
:10315000C4D801A252F820F095310008953100083A
:103160009531000895310008953100089531000827
:103170009531000895310008DD300008DD30000889
:10318000DD300008DD300008A3310008AF31000851
:10319000B931000801215A78814022EA01025A70AF
:1031A0009CE70B490A7822F001020A7096E7084969
:1031B0000A7822F00202F8E705490A7822F00402B0
:1031C000F3E700BFDA2A0020D92A0020D82A0020FD
:1031D000D72A00200246022A084670B528D80021C6
:1031E000144B9D1D03EBC1046679360705D515F810
:1031F0003160964201D1204670BD01310329F1D1E1
:103200000028F9D059790C07C1F3C00006D5597BC5
:1032100008070BD5597D09070AD4022003EBC0002B
:103220004379827143F008034371E5E70120F5E734
:103230000020E1E78016002002B11047704700002F
:10324000034B1B6813B11B6803B11847002070477C
:10325000A42A00200B4B07B51A8882420FD0188091
:10326000094B1B685BB11B694BB103228DF805004C
:10327000000A8DF806008DF8042001A8984703B0D5
:103280005DF804FB7E160020A42A00200C4B07B535
:103290001A88824210D018800A4B1B6863B11B69E0
:1032A00053B104228DF80500000A8DF806008DF850
:1032B00004200DEB0200984703B05DF804FB00BF4B
:1032C0007C160020A42A002010B5164B9B78012BF9
:1032D00011D1154A92F90020002A0CDAEF284FEAA2
:1032E000D00107D8114A00F007000A4491788340C2
:1032F0000B43937010BD00224FF0FF330C4911F8BF
:10330000014FA042F6D0B3F1FF3F01D104B953B24F
:103310000132062AF3D15A1CECD0064A13449870A5
:10332000E8E700BF58110020EC2A00200C1600200E
:10333000051600200416002010B5124B9A78012AB9
:1033400012D1114B93F90030002B0DDAEF284FEA20
:10335000D00108D80D4B00F007000B44997882404B
:1033600021EA02029A7010BD06230021084A12F8D1
:10337000014F013B844208BF117013F0FF03F6D1E7
:10338000F1E700BF58110020EC2A00200C160020A5
:1033900005160020014B5878704700BF58110020D7
:1033A000BFF34F8F0549064BCA6802F4E06213432E
:1033B000CB60BFF34F8F00BFFDE700BF00ED00E023
:1033C0000400FA057FB500233A4C636090F847107B
:1033D00090F8462042EA012290F8481090F84900FF
:1033E00041EA0021100A032814D00DD801285AD030
:1033F00002280DD15B23304A002A2E4808BF104610
:103400006260236004B070BD21283DD0222842D0E4
:103410001A46F1E7D3B2032B06D8DFE803F04702E0
:10342000070A0623254AE7E70023F1E72A23244A6F
:10343000E2E7244B244E1D781DBB012229461A7059
:1034400068461022FDF728FD2946204804AB03EB0F
:10345000610313F8102C06EB41031509455D02F0DA
:103460000F029D700025825CDD704B1C023106EB63
:10347000430320299A70DD70E8D14223337003237F
:1034800073703378104AB7E70229C1D8104B53F84C
:1034900021200923B0E70229BAD80E4B53F8212086
:1034A0000D4B5B5CA8E712230C4AA5E704230C4AEA
:1034B000A2E700BF7416002072CD000866CD000898
:1034C0003ACD00082C1600202D16002029CD00082A
:1034D000F0CD0008E4CD0008DFCD0008CDCD000818
:1034E0006ECD00080E4BD8787E280FD96E23584336
:1034F000FF23B0FBF3F0C0F1A0004FF4827380B261
:1035000058436423B0FBF3F080B2704740F21713C6
:1035100058437F23B0FBF3F0C0F5C0700130ECE7F7
:10352000582B002010B51C4B9B78012B1ED11B4B38
:1035300093F90030002B19DAFFF76EF8184C2022AF
:10354000607018492046FEF785FB20B320222146F3
:103550001448FDF7C3FF144B1B68E3B19B68D3B15C
:10356000062222702046BDE810401847FFF754F8A5
:103570000E4C082220700E492046FEF76BFB50B11E
:10358000082221460A48FDF7A9FF074B1B6813B123
:103590005B68002BE6D110BD58110020EC2A0020FA
:1035A0000C160020822A0020A42A002004160020E5
:1035B000A82A002038B51C4B1B78D3B19378C3B12F
:1035C00014785578844201D0854212D185424C79D5
:1035D0000CBF012100211144CC7014BF0121002136
:1035E0005018C07828B1022B05D014D9D81E012854
:1035F0000CD9012038BD505C2CB9FFF765FEFFF7F0
:1036000091FF0020F6E7FFF797FEF8E7033B18BFAE
:1036100001239942F5D0505C14B9FFF755FEE8E755
:10362000FFF78AFEE5E700BF6C11002028B1034BCD
:103630001A7810431870FFF775BF70472E2F0020BF
:1036400008B528B1FFF720F8BDE80840FFF76ABFCA
:1036500008BD000028B1034B1A7810431870FFF71B
:1036600061BF7047EE2A002030B1044A137823EA84
:1036700000031370FFF756BF704700BFEE2A00200B
:1036800010B50C46826801692046FFF7D5FD094A4E
:10369000E1781378207923EA01031370FEF7F4FF31
:1036A000FFF740FF2046BDE8104008220021FDF74B
:1036B000F3BB00BFEE2A002038B54B7905469A07C8
:1036C0000C4613D4104A43F002034B71CB781178A7
:1036D0000B4313700D4A237911780B431370FFF7D6
:1036E00021FF20466A682969FFF7A6FD0022084BE2
:1036F0001A806379DB0705D421462846BDE83840A7
:10370000FFF7BEBF38BD00BFEE2A00202E2F0020DD
:103710005C2F0020084B9B78012B09D1074B93F9B4
:103720000030002B04DA1E2200210548FDF7B4BB4F
:10373000062200210348F9E758110020EC2A002056
:103740000E16002006160020F7B5144604220027A6
:1037500005460E460F200DEB0201019708F0D8FE3A
:10376000019BCA2B0FD13444CA2C88BFEF2406F129
:10377000250098BF2534241A2246294608F0C8FEA1
:10378000204603B0F0BD224639462846FDF784FBAB
:10379000F6E7002307B501220DF107018DF8073088
:1037A00008F0B6FE9DF8070003B05DF804FB05289D
:1037B00038B517D8052915D80E2A13D81E2354005A
:1037C00003FB0144B42303FB004404F1F300FFF7BF
:1037D000E0FF050204F1F400FFF7DBFFADB2284380
:1037E00080B238BD0020FCE72DE9F04100F24358DB
:1037F00005460F4616464446A4EB08039BB2BB425F
:1038000001D3BDE8F0812B44B3F52F7F06D82046C5
:10381000FFF7BFFF06F8010B0134EDE70020F9E7E1
:1038200013B50446012100680DF10702FFF7DCFF24
:1038300023689DF807000133236002B010BD8000AB
:1038400070B500F22B5481F001000E4604EB4000ED
:10385000FFF79FFF002E4FEA00250CBF0320012039
:103860002044FFF796FFADB2284380B270BDCAB2C4
:10387000C1F30721052982B006D80E2A14D80528DD
:1038800012D802B0FFF793BFFD2906D162B905280F
:103890000AD8012102B0FFF7D2BFFC2904D11AB91E
:1038A000052801D81146F5E7002002B07047000056
:1038B0007FB505240F4BADF804001E780E4B1B7826
:1038C0001E4346FA04F3DB0705D4013CF9D2002578
:1038D000284604B070BDBDF80430E5B2ADF80C3038
:1038E00003992846FFF7C3FFFEF7BEFF80B2012809
:1038F000EBD0EDE7E92A0020E82A002013B5028882
:103900004379ADF80420019873B169B1FFF7D0FF96
:10391000044601460198FEF703FE2046019902B0D5
:10392000BDE81040FFF7A3BFFEF71AFE0446F4E718
:103930001FB5ADF804000198FFF7BAFFBDF80430D9
:10394000ADF80C300399FFF792FF05B05DF804EB7A
:10395000FEF78ABF08B503460079A8B11888FFF7BB
:10396000E7FFC3B2C0F30330062813D094BF0E3074
:10397000063000F00F00012810D8F02B10D004D82A
:10398000E72B8CBF0020012008BDF42B14BF0020C2
:103990000120F9E7E72B03D9F12BF7E70020F3E744
:1039A0000120F1E738B5EF20FFF7F3FE0546F020E0
:1039B000FFF7EFFE0446F120FFF7EBFE262D05D1C1
:1039C000102C03D1031F5842584138BD0020FCE79A
:1039D00008B5F220FFF7DDFE08BD002307B502227F
:1039E0000DF10601ADF8063008F092FDBDF80600B5
:1039F00003B05DF804FBF8B50D4606461446D31D2A
:103A000023F0070300AFADEB030D6946284608F02D
:103A10007FFD224669463046FEF71CF920B122465A
:103A20003146284608F012FDBD46F8BD082208B50B
:103A300017210348FFF7DFFF0022024B1A7008BD71
:103A4000502B0020E027002010B5084C59232046B9
:103A5000032200F8013B0649FDF740FD4FF67F7356
:103A6000A380BDE81040FFF7E1BF00BF502B00204E
:103A7000FCCA0008F0B585B0102200216846FDF7A9
:103A80000BFA2C2440F2BD2540F24357102D2E4650
:103A900028BF1026394632466846FFF7ACFF013C86
:103AA0003744A5EB0605F1D105B0F0BD37B50C469E
:103AB0000546FFF76EFEA04207D0012228460DF111
:103AC00007018DF8074008F0C1FC03B030BD0528A0
:103AD00038B51D4616D8052914D80E2A12D81E232B
:103AE000540003FB0144B42303FB0044290A04F1FE
:103AF000F300FFF7DBFFE9B204F1F400BDE8384062
:103B0000FFF7D4BF38BD052870B516461D4614D83A
:103B100099B9800000F22B5482F0010004EB4000C0
:103B2000190AFFF7C3FF002E0CBF03200120E9B2E2
:103B30002044BDE87040FFF7B9BF70BD2DE9F84FD4
:103B40000025DFF87880DFF878A0D1460027ECB2B6
:103B500011E0052D14BF39F816300123F2B2594691
:103B600020460136FFF7B3FF0F2EF2D10137062FA3
:103B700009F11E091DD000265FFA87FBE9E7B8F8B6
:103B80000030012200212046FFF7BDFF0022052C56
:103B900014BFB8F802300123114620460135FFF763
:103BA000B2FF062D08F104080AF1B40ACDD1BDE830
:103BB000F88F052CE3D10123E3E700BF80D1000893
:103BC000FCCD000808B5FF21EF20FFF76FFFFF21B4
:103BD000F020FFF76BFFFF21F120FFF767FF0021C7
:103BE000F220FFF763FFFFF7A9FFFFF743FF26214E
:103BF000EF20FFF75BFF1021F020FFF757FFBDE834
:103C000008400421F120FFF751BF37B50C460546A7
:103C1000FFF7E3FEA04207D0022228460DF106017D
:103C2000ADF8064008F012FC03B030BD094A08B5F3
:103C30005378C3F3800181420BD060F38203537049
:103C400004201188FFF7E1FFBDE808400220FEF7DD
:103C5000CBBC08BDEC2A002037B5042200230C465B
:103C60000DEB02010193054608F052FC019B9C42BA
:103C700006D0042228460DEB0201019408F0E6FB71
:103C800003B030BD2DE9F0412525404F404CDFF811
:103C900004818EB017F8013B01268DF80430A6236D
:103CA0008DF8053048F2FF03ADF806307F2304227B
:103CB00021460DF109008DF80830FDF70FFC0422B4
:103CC00041460DF10D00FDF709FC042221460DF1DE
:103CD0001100FDF703FC042221460DF11500FDF74C
:103CE000FDFB042221460DF11900FDF7F7FB04222C
:103CF00029490DF11D00FDF7F1FB042227490DF1C3
:103D00002100FDF7EBFB042221460DF12500FDF714
:103D1000E5FB042221460DF12900FDF7DFFB04221B
:103D200021460DF12D00FDF7D9FB042221460DF1AE
:103D30003100FDF7D3FBCA210F208DF83560FFF766
:103D40008BFF2946322201A83235FFF754FEED2DB4
:103D5000A0D10023CA210F208DF80430FFF77CFF8B
:103D60003246294601A8FFF746FE0623CA210F2046
:103D70008DF80330FFF770FF3246EE210DF103009E
:103D8000FFF739FE0EB0BDE8F08100BF68D400082F
:103D900064D40008FFCA000803CB000807CB000862
:103DA000F0B585B008F0C2FB4FF6E3610020FFF7E5
:103DB0002CFF00210220FFF779FE0121194B03207F
:103DC0001970FFF773FE4FF4A4510420FFF71DFF95
:103DD000FFF73AFECA210F20FFF73EFF1022002115
:103DE0006846FDF759F80D242527CA25102D2E46C3
:103DF00028BF1026394632466846FFF7FCFD013CD5
:103E00003744A5EB0605F1D1FFF7DCFEFFF73AFFDB
:103E100021461320FFF720FF05B0BDE8F040FFF773
:103E200005BE00BFE82A00200022082311460148F1
:103E300008F006BE0C080040F7B51F464BBA090C47
:103E4000064615468DF80400ADF806308DF80510CD
:103E5000FFF7EAFFE8B104210DEB010008F024FEB2
:103E6000044648B945B1022E0BD0032E0ED1284688
:103E7000B9B208F023FE044608F02AFE204603B03B
:103E8000F0BD2846B9B208F00FFEF4E74FF0FF345A
:103E9000F2E74FF0FF34F1E7312808B514D040289D
:103EA00014D008D8012811D9094B1B7813F0220F20
:103EB00004D0032008BD4B380328F4E7FFF7C0F90E
:103EC00010F00200F5D1F5E70220F3E70120F1E759
:103ED0002E2F0020F0B50625084FDFF824C03C78CF
:103EE000654301340CEB050604F07F04B070F270FA
:103EF0003C702CF805103371F0BD00BF2C2C002055
:103F00002E2C00201D4B1E4A1B6811688B4233D09B
:103F100013601C4A12787AB31B4AFF2113600023F6
:103F20001A4A13801A4A107900B191700133802B1C
:103F300002F10602F7D100231946164A107900B1A2
:103F4000D1700133082B02F10602F7D10023194684
:103F5000114A107900B1D1700133082B02F1060229
:103F6000F7D1002319460D4A507900B11171013380
:103F7000062B02F10602F7D1704700BF282C002063
:103F8000242C0020F82B0020F42B0020F02B002004
:103F90002E2C0020C02B0020902B00206C2B00200A
:103FA00008B50120FEF764FA68B90220FEF760FA4E
:103FB00048B90320FEF75CFA28B90520FEF758FA45
:103FC00000F0010008BD0120FAE700002DE9F84FDC
:103FD000DFF8BC802F4BD8F8002019688A421BD02C
:103FE0002D491A60FFF7DCFF0B784BB140B903464F
:103FF000FF242A4A0133802B947002F10602F9D182
:10400000DFF89C9000264F460870FFF77BFF17F8FB
:1040100010ABF3B29A4501D8BDE8F88F17F8014FFD
:104020002046FEF709F828BB06F10C0309EB430311
:104030005A789B78D8F8005042EA0323ED1AADB2C3
:1040400029462046FEF714F8834698B92046FFF724
:1040500023FF5B46024629462046FFF73BFF4B2CD9
:104060000AD14020FEF704F8034618B90122402087
:10407000FFF730FF0136CCE7402CFBD14B20FDF79A
:10408000F7FF03460028F5D101224B20F0E700BFDF
:10409000282C0020682B0020652B00202E2C0020CF
:1040A000F82B002038B50A245125FCF7D1F890FBF5
:1040B000F5F303FB1500C2B21046FDF7BDFF20B1BA
:1040C000013C14F0FF04F0D1FF22104638BD00007F
:1040D00010B5094C0B78246820F823400B7800EBCE
:1040E0008300012383700B780133B3FBF2F000FBF4
:1040F00012330B7010BD00BF282C0020F0B5062530
:104100000D4EDFF838C033782C3005FB03F72CF860
:1041100007100B490CEB070401EB40018878C978C4
:104120006271E17001210B44B3FBF5F205FB123320
:10413000A07033702171F0BD642B00206C2B002027
:1041400084D40008704708B5302383F31188012117
:1041500000F00F039940202220F00F0006F04CFFE2
:10416000002383F3118808BD0123C1F1804101F2CE
:10417000074101F00F012022024803FA01F106F085
:104180003BBF00BF00040040044B93F804281AB959
:10419000012083F80408704702207047C01F0020E8
:1041A000054B93F8042822B10022012083F804284B
:1041B00070470220704700BFC01F002008B5064BA3
:1041C0004FF4006200211846FCF766FE40F6080234
:1041D000C0F8002808BD00BFC01F0020034630B54E
:1041E0002A49C3F3074213F47F4F8A5C85B0C0B2FB
:1041F000C3F3072546D00624FF234443591BB4FBD1
:10420000F3F46FF05403634303EB400303EB430306
:10421000DBB203FB05F0C3F1FF036B4300121B127B
:10422000C0F1FF00C3F1FF03514350435343C1F3B7
:104230000721C0F30720C3F30723062C1ED8DFE8AD
:1042400004F004061114181D040010461A46134603
:104250000246002062F3070063F30F2061F317406A
:1042600005B030BD08461946F1E703460846114639
:10427000ECE710460A4601461846E8E703461046B2
:104280000A46F0E711461346E3E700BFD0D1000825
:104290004B2810B50C4601D0402815D10B4B1B788C
:1042A00013F0220F10D00A4A53789178D07843EA5D
:1042B000012343EA0040FFF791FFC0F3072320707A
:1042C000C0F307406370A07010BD00BF2E2F002008
:1042D000502B0020012830B501D8C0B230BDB0F558
:1042E000F75F88BFFF224FF001049EBF42090832EA
:1042F000D2B2A3185910C3F34705C3F34F035B436E
:104300009BB2984206D2013DEAB29442F1D9013CF7
:10431000E0B2E3E7FF2902D00135ECB2F5E7084649
:10432000DCE70000074B188800EB402200EB82001E
:1043300000F55850193080B2188000EB1020C0B240
:10434000704700BFB60E002010F0400216BFC343F6
:104350000346DBB210B503F00F0102B10131094C85
:10436000C3F3011304EB4302527814F813304A43A9
:1043700003EB2213DBB2020644BF5B42DBB283F0E5
:10438000800010BDC8D100081FB5C0F307440190DC
:104390005008FFF7D9FFA0F180035BB2002BBCBF30
:1043A000C0F1800043B200205B00DBB204FB0333AA
:1043B0001B128DF80630019BDAB262F30700C3F3DB
:1043C000072262F30F20C3F3074363F3174004B0DF
:1043D00010BD000030B50D4685B00190C4B2104646
:1043E000FFF7B2FF124901EB450191F85A30C218AC
:1043F000D2B2A2F180035BB2002BBCBFC2F180023B
:1044000053B20D2200205B00DBB2534304EB1324B4
:104410008DF80440019BDAB262F30700C3F3072270
:1044200062F30F20C3F3074363F3174005B030BDB9
:1044300084D40008FEF718BD00EB0010C3B20020C2
:1044400003F11102D2B2512A63F30700134628BFC9
:10445000512382B063F30F2002B0704770B5EFF3C1
:10446000118525B9EFF30583302282F31188174BAC
:10447000174E1849DC6933680A68E41AA242164AE2
:104480000AD9A3F58333E03B10683360134B04F57E
:1044900083340344E034136016680C6035B9EFF3DD
:1044A0000583C3F308036BB185F311884FF47A7564
:1044B00000210B480023E4FB05010A4AFDF748FCF4
:1044C000304470BD06F00AFBEEE700BF202A002052
:1044D000D0270020CC270020C827002088598F0231
:1044E0009F860100A08601002DE9F041884616460E
:1044F00000251F460E4B2A01995C03EB051491B968
:10450000012160709954FFF7A9FF9DF818307600DB
:10451000A3739DF81C306060C4F80880267367732D
:10452000E373BDE8F0810135142DE4D1F9E700BF54
:10453000602F002013B5FF2403222346C821022048
:1045400001940094FFF7D0FF032223461046C821B0
:1045500001940094FFF7C8FF23460322C8213F209F
:1045600001940094FFF7C0FF23460322C8210420D2
:1045700001940094FFF7B8FF02B010BD2DE9F84395
:10458000002506460F46A8461E4C2378002B32D045
:10459000D4F80490FFF762FFA368A0EB0900834200
:1045A0001CD8FFF75BFF237B606093B984F8008021
:1045B000C4F804806078617BB042A27BE37B1AD3AD
:1045C000B84218D2DB43D243C943DBB2D2B2C9B23C
:1045D0000FE0013BDBB22373002BE7D0237B607835
:1045E000DB07E7D5864206D8874204D9E37BA27B66
:1045F000617BFFF71FFF0135142D04F11004C4D1B6
:10460000BDE8F883602F002010B5FFF727FF0D4BA2
:1046100080B29A78D9780A4318BF0B4A597918BFE3
:1046200010801A790A431CBF084A1080084A126891
:104630003AB1D2682AB1022119700248BDE810408F
:10464000104710BDDA2A0020CC290020CA290020FA
:10465000A42A002010B5044600285AD0031FDBB25C
:10466000A02B27D82B4B9B78012B13D12A4A92F9E8
:104670000020002A0EDA294A00F0070102EBD002DE
:1046800092788B401A420ED02046FEF755FEFEF778
:1046900049FF08E00023224A12F8011FA142F3D08B
:1046A0000133062BF8D12046FEF70EFEBDE8104080
:1046B000FEF738BF00F12003DBB2072B08D8012337
:1046C000184A00F007041178A3400B431370EDE77C
:1046D00000F15B03DBB2022B05D8BDE810402438A3
:1046E00080B2FEF7B7BD00F15803DBB21A2B06D833
:1046F000BDE810400C4A32F81300FEF7C7BD333452
:10470000E4B2122C05D8FEF787FCBDE81040FFF795
:104710007BBF10BD58110020EC2A00200C16002091
:10472000051600202E2F00208ED3000810B58378A8
:10473000012B10D10C88A4F1E003072B00D944B958
:1047400009492046FDF75CFEE0B2BDE81040FFF7E6
:1047500081BF0649F5E7022B04D1BDE810404B6844
:104760008878184710BD00BF2D3600085536000860
:1047700008B50346A0B3021FD2B2A02A05D8FEF79F
:10478000DBFDBDE80840FEF7CDBE00F12002D2B24D
:10479000072A07D800F0070301209840C0B2FDF7B0
:1047A00073FFEEE700F15B02D2B2022A04D8BDE843
:1047B00008400020FEF74EBD00F15802D2B21A2A7E
:1047C00004D8BDE808400020FEF760BD3333DBB2FB
:1047D000122B05D8FEF772FCBDE80840FFF714BFA6
:1047E00008BD000010B500240E4B1C70FEF792FFB0
:1047F0002046FEF72FFD2046FEF748FD0A4B1C70B1
:10480000FEF790FE214606220848FCF745FB084BC0
:104810001C70084B1C70084B1C70BDE81040FFF763
:10482000F3BE00BF2E2F0020EE2A0020DA2A00203F
:10483000D92A0020D82A0020D72A002008B583785A
:10484000022B06D9FFF7CEFF024B034A1A60FEF790
:10485000A7FD08BDFC6F0020EFBEADDE08B5837874
:10486000022B05D9FFF79CFAFFF7BCFFFEF798FD76
:1048700008BD0000F8B5FEF7E3FC0B4EC0F34004A2
:1048800033782BB1094D2B78A34203D10023337029
:104890002046F8BD064B1F88FFF7E0FDC01B80B225
:1048A000F928F3D82C78F3E75B2F00205A2F00204B
:1048B000582F0020F7B505460120FDF7D9FD0E461B
:1048C0000446284F28B13B781BB9FFF7C7FD264B9C
:1048D000188001203C70FDF7CBFD002840D002205D
:1048E000FDF7C6FD00283BD10320FDF7C1FD0028E0
:1048F00036D10520FDF7BCFD044688BB1A4B1F8846
:10490000FFF7ACFDC01B80B2952829D9174B184F73
:10491000997DDA7D5B7D8DF805108DF804308DF87A
:1049200006200198FFF75AFCC0F307238DF80130E9
:10493000C0F307438DF800008DF8023017F8010B23
:10494000A84209D3B04207D29DF802309DF8012059
:104950009DF80010FFF76EFD0134E4B20C2CEDD190
:1049600003B0F0BD562F0020542F00202F2F002021
:10497000D1D500080021FF200A4608B5094B0331B4
:10498000B1F5C07F98701A80DA701A7103F10603CE
:10499000F5D1054B1A70FFF761FDBDE80840FBF744
:1049A00025BC00BF2E2C00202C2C002038B5FFF792
:1049B00055FD00F57A75FFF751FD854214D9FFF7D3
:1049C00033FAA0B1052008F04BF808F05BF8044674
:1049D00008F07EF8002C04DB14F00104EBD1204633
:1049E00038BD231DE7D0FAE76FF00104F7E74FF079
:1049F000FF34F4E738B5FFF7D9FF054690B9FFF764
:104A000013FA044670B1062008F02AF808F060F89E
:104A10002B462A462946D820FFF70EFA10B9FFF791
:104A2000C5FF00B10024204638BD2DE9F0410746FE
:104A30000C46D600FFF7BAFF054648B132460021C2
:104A40002046FCF729FAB5FA85F04009BDE8F08167
:104A50003346224639460320FFF7EEF90546002883
:104A6000ECD121462644D1E90023D243DB4341F86F
:104A7000082BB14241F8043CF5D1E4E72DE9F04FB1
:104A8000074615464FF0000AC3B00191202D2E466F
:104A900028BF2026F3001A460093019B02A803EBCF
:104AA000CA01FCF71BFD002202ABD3E90001C043A1
:104AB000C943013243F8080B964243F8041CF4D171
:104AC000B946DDF800800DF1080B5FFA89F4C4F5F2
:104AD0008074444528BF4446FFF768FF40BBFFF79A
:104AE000A3F928B3062007F0BBFF07F0F1FF234628
:104AF0005A4649460220FFF79FF9C8B9B8EB0408A7
:104B0000A344A144E1D1FFF751FF88B9FFF78CF925
:104B1000044668B1042007F0A3FF07F0D9FF009B0B
:104B2000AD1B1F44B244B1D1204643B0BDE8F08F65
:104B30000024F9E72DE9F347FFF75CFF0146A0B138
:104B4000FFF722FB2B4904464FF480720020FFF749
:104B500095FF284D0146002842D1012C01D1FFF7D5
:104B60001FFB40F60803C5F80038084602B0BDE850
:104B7000F08717F8013B4FEA4E195A40A2FB003864
:104B800000FB0E884FEA421A49EAD26913EB0A0386
:104B900048EB09084FEAC21A9B184FEACE194FEAB0
:104BA00002264EEB080849EA526913EB0A034FEA62
:104BB0000E2E48EB09084EEA126E9B1948EB0E0EBA
:104BC000B64413EB0C020139D3D16946CDE9002E6E
:104BD0004FF400600122FFF751FF4100C9B2BCE76A
:104BE00040F601012F464FF0000C1220024ADFF878
:104BF0000CE0E8E7C01F002025232284E49CF2CBD0
:104C0000044BD3F80038B3F5805F01D3FFF792BFB0
:104C100001207047C01F00202DE9F04FB44BB5B004
:104C20001B78B44E8342049031D1B34B37781B7854
:104C300007F00307FF1A18BF0127B04D73796A7890
:104C4000AF709A4205D00022114610466B70FDF7F6
:104C5000C3FF049B162B1CD8013B152B1FD8DFE884
:104C600013F026004C008A00C800CC002801420145
:104C70004401610165016701A301A5013102B90287
:104C8000BD02D7029307EF070709230A930B0127F9
:104C9000D3E7049BFF2B02F0128000240DE1002FCC
:104CA000FBD0002211461046FDF796FFF5E7287865
:104CB000FFF7C2FB92490322ADF88800C6B2C0F3E9
:104CC00007242BA8FCF70AFC2B98FFF787FA8D4FD7
:104CD000C1B2C0F30722C0F30743F0B2844201D847
:104CE000502CE6E1B85D95F801C010EA0C0F02D037
:104CF0003046FFF79FFB0136EFE72878FFF79CFB74
:104D00003379DFF8008201339B0896F8029096F819
:104D100003A0ADF88800C0F307240293C7B2A8F13E
:104D2000A10BFBB29C42DBD918F807306A7813421A
:104D30001FD01BF8172002997378120902FB013368
:104D40008DF8AD908DF8AC308DF8AEA02B98FFF7B4
:104D500045FAC0F30722C0F307438DF850008DF8E1
:104D600051208DF85230C1B2DBB23846D2B2FFF7D3
:104D700061FB0137D5E72878FFF75EFB3379DFF871
:104D8000848101339B0896F8029096F803A0ADF851
:104D90008800C0F307240293C7B2A8F1A20BFBB2AC
:104DA0009C429DD918F807306A7813421FD0029BA5
:104DB0001BF817208DF8AD905A4373788DF8AEA08C
:104DC00003EB62138DF8AC302B98FFF707FAC0F3B2
:104DD0000722C0F307438DF854008DF855208DF855
:104DE0005630C1B2DBB23846D2B2FFF723FB0137EF
:104DF000D5E7454806F064FA5EE02878FFF71CFB2B
:104E0000424B32791B88520802FB0333C3F307235A
:104E100002933F4BC7B2ADF88800C0F3072403EB01
:104E2000470903F1FC0AFBB29C427FF659AF1AF81E
:104E300007306A78134238D0F37899F85A1099F805
:104E40005B00727896F802B00393029B70392038A9
:104E5000ABEB03080592FDF7E9FD059A5FFA88F8C8
:104E60008DF8AC20C0EB801200EB820080445FFA2A
:104E700088F80BFB0888039B4FEA28288DF8AE3092
:104E80008DF8AD802B98FFF7A9F9C0F30722C0F386
:104E900007438DF858008DF859208DF85A30C1B26B
:104EA000DBB23846D2B2FFF7C5FA09F10209013781
:104EB000B9E7184806F0F2F80446104B1A780132A8
:104EC0001A70002C41F00E870221134A9B78117052
:104ED000002B41F00787049B002B41F0038703233D
:104EE000137001F0FFBE0D4884E70D48E2E700BFF4
:104EF000B40E0020502B0020B30E0020B00E002076
:104F0000512B002080D5000889430008282C002060
:104F100084D40008752A0008AF0E0020BB2A0008C0
:104F2000E12A0008AE4806F02FF9C5E7AD48FAE7D8
:104F30002978C9B93279AC4B1032FF2A28BFFF2239
:104F40001B8802FB03330522C3F30F23B3FBF2F2EA
:104F500002EB82029B1A9BB233B9FFF7E3F95123AC
:104F60005843A24B001218800846FFF765FA044622
:104F7000ADF8AC00C5B2C4F3072497B99B4E308896
:104F800085423FF6ADAEA042BFF4AAAEC0B206F075
:104F900067F952233380A3E6284606F061F901350C
:104FA000EDB2AC42F8D89BE6914823E72C78204636
:104FB000FFF742FAC3B2ADF888000293C0F3072BA3
:104FC0004FB1002211461046FDF706FE5A2200217D
:104FD0008848FBF761FF7CB9874C2588FFF73EFACC
:104FE000401B80B218288CBF01220022834B1A700C
:104FF00002D9FFF733FA208000252F460026804B88
:1050000005EB030A7B4B05EB03081AF8019B029B97
:105010004B4544D8CB4542D9794B4B4493F8FC20BF
:10502000784B5B781A4238D098F80040764904F102
:10503000AA03FF2B28BFFF2303EB43038A78023325
:10504000C978DBB201FB0333A4F1550121EAE17118
:10505000C3F30723C1F1AA018DF8AC108DF8AD2080
:105060008DF8AE302B98FFF7B9F8C0F30722C0F3E4
:1050700007438DF860008DF861208DF86230C1B271
:10508000DBB24846D2B2FFF7D5F95C4B1B7823B1AF
:10509000013C24EAE47488F800400137FFB201368D
:1050A000F6B20F2E08F10108AFD14B2D05D1BBF19F
:1050B000500F8CBF00240124FFE6102F05F10F05CF
:1050C0009CD9F4E72878FFF7B7F9DFF840B1C5B20B
:1050D0009BF80030ADF874000293494BC0F30724ED
:1050E00003EB4509FC330393EBB29C427FF6F8AD2A
:1050F000039B444A5B5D5278134230D04FF0000866
:1051000041484646077941780137FF2F28BFFF27DE
:105110008278C378DFF8F4A00137DDF808C05FFAC1
:1051200088F084451FD803FB066636128DF8881078
:105130008DF889208DF88A602298FFF74FF8C0F328
:105140000722C0F307438DF8AC008DF8AD208DF831
:10515000AE30C1B2DBB22846D2B2FFF76BF90135EF
:1051600009F10209C0E71AF8010F99F85AC09AF834
:1051700008E0ACEB000C1FFA8CFC0CFB0CFC99F863
:105180005B000791A0EB0E0000FB00C080B206930D
:105190000592FFF79FF808F10C0E0BEB4E0E9EF8F0
:1051A00001C09EF802E007994CEA0E2C07FB0CFCAC
:1051B000C0EB1C2080B2FF2828BFFF20C043C0B234
:1051C0003044FF2828BFFF20069B059AC6B208F18D
:1051D0000108A2E7002006F0C9F86DE60120FAE711
:1051E000192B0008692B0008282C0020AC0E002089
:1051F000D543000820290020D61B0020D51B002005
:1052000084D40008B00E0020502B0020F82B002082
:105210002C782046FFF710F9C3B20F93C0F3072391
:10522000ADF854000B93002C64D1764B764E1B687E
:105230000293002F00F00E81FFF710F9029B734AD2
:1052400080EAC320724B4340012B38BF0123136017
:10525000FCF762FFFCF760FFFCF75EFFFCF75CFF0A
:10526000FCF75AFFFCF758FFFCF756FFFCF754FF1A
:10527000FCF752FF6923B0FBF3F202FB1300654B0E
:105280003C3000031860FCF747FF1923B0FBF3F232
:1052900002FB1300604B143000031860FCF73CFF66
:1052A0005E4B347018605E4B1C60FCF735FF10F0ED
:1052B000010F0CBF4FF0FF3201225A4B1A70FCF75E
:1052C0002BFF10F0010F0CBF4FF0FF320122564BA5
:1052D0001A70564B1C60FCF74DFF554B1C60554B2C
:1052E0001C60554B1C60554B1C70554B1C70554B2E
:1052F000029A1A6000214FF0FF084FF0480B4FF060
:10530000BF0A4FF03C09434BDFF83CE11B6818AC87
:1053100043F30F23002BB8BF0F331B1102933E4BF7
:105320001DA81B682BAD43F30F23002BB8BF0F3311
:105330001B110393424B0DF1880C1F783F4B1B78D8
:105340003B44013B07933B4B1B680693CEB2B742ED
:105350003ED91122079B5B1A93FBF2F202EB021279
:105360009B1ADBB23EF933600EEBC303B3F90220A4
:105370005B680592069A0131D31AC3F30B33472BAE
:105380009BBFC3EB0323B3FBFBF3FF23DBB2DB4386
:10539000059A002EB8BF0F36002AB8BF0F3212117F
:1053A000DBB225F8022B03FB033209FB03F3B3FB4B
:1053B000F8F312120AFB02F23611121228331229E4
:1053C0002CF8026B04F8012B00F8013BBED10E460D
:1053D00040F283481D4B0F9C93F82120059293F8CF
:1053E000222093F8233007920693194B03EB4405D0
:1053F000FC3308930B9AE3B29A4200F221831346DE
:10540000502B56E6282C0020761C00206811002026
:10541000B979379E801C00207C1C0020781C00205D
:105420003C2B0020751C0020741C0020482B002001
:10543000701C00206C1C0020681C0020651C0020D3
:10544000641C0020841C0020D81B00202F2F00206B
:1054500084D40008C44B029A1B68C44DD41A4FF67A
:10546000FF72944228BF1446C14AA4B2D07A4FF4C6
:1054700004425043FF2200F58F1000F56060B0FB3E
:10548000F2F03278322C28BF3224002A40F07C829D
:1054900001232860337029684FF47A7284FB01413C
:1054A00009010023200141EA1471FCF701FC03907B
:1054B000039B002B7FF71BAFDDF80CB0AD4ABBF5AB
:1054C000405FA8BF4FF4405B1368AB4D5B44136073
:1054D000A84B2A681C68944280F26782E117C903CE
:1054E000D317E00341EA5441FCF7E2FBFCF720FE4E
:1054F000A24B1A68A24B1B689B1A83FB0030DB0B84
:1055000043EA404302EB03099E4B1B680C931B13B9
:1055100005939D4B1B680D931B1306939B4B1B68B8
:105520000A931B0C03F5804080B20793FCF7D6FD6D
:1055300009900798FCF7D2FD16220021099B80EA0A
:10554000E07583EAE376A5EBE075A6EBE376ADB212
:10555000B6B208903301C5F50040C0FB0231DB0B49
:1055600043EA4143C6F50040290F2C01C0FB02412C
:10557000099AE40B002A059AB8BF5B42D3180E9330
:10558000089B44EA4144002B069BB8BF6442234475
:1055900000241022002122A81093FBF77DFC059A1D
:1055A000069B0027C2F10201DE3A2C92C3F10602EB
:1055B0003A3B2B912D922E930DF1AC0A0DF18808F8
:1055C000012F8CBF0E2212225AF8041BD8F800308B
:1055D00021EAE1719142A8BF11464FEAE17C4FEA0E
:1055E000CC3C1193C80300234CEA5141FCF760FB0B
:1055F000119B01378342ACBF48F8043B48F8040BC9
:10560000042FDDD1002C00F0D681229B23AC94E83E
:105610009001A3421846B8BF2046B842B8BF3846EA
:105620004045B8BF40460E93FCF782FDA5F57A557C
:10563000002D82462EDDE917C903002344F27F12B4
:10564000E80341EA5541FCF733FBFCF771FD40F6F6
:10565000B8339E4210D9099B089A002BCCBF002377
:105660000123002AD4BF0022012293420CBF012350
:105670004FF0FF33464A137044F26662444B93F98D
:1056800000305343A3EB090383FB0030DB0B43EAF9
:1056900040439944BAF1000F40F396800E9BA7EB6C
:1056A00008071D1B87FB07321946C5FB0512B1F120
:1056B000004F72F10002B4BF0B466FF000434FF091
:1056C00080429342C0F07B810024002A40F079811F
:1056D000002C79D0E917E617C90322463346E803C0
:1056E00041EA5541FCF7E4FAF917C903224633466B
:1056F000054641EA5741F803FCF7DAFA089B099A94
:1057000083FB0043C5FB0243DFF888806442224AE2
:1057100063EB4303E40B126844EA434498F9003016
:1057200006465343B3F5005F38DCCDE9005005A9C8
:105730000EC90120FCF742FDCDE9005605A9074638
:105740000EC94FF0FF30FCF739FD3B1A002BB8BFF4
:105750005B42042B22DD8742ACBF4FF0FF370127AD
:1057600088F800701AE000BF841C0020601C002034
:10577000582B0020701C0020402B0020442B0020C0
:10578000482B0020801C00207C1C0020781C00205E
:10579000741C0020751C00203C2B002004F5B34431
:1057A0001934B4F5004FA8BF4FF40044B94B24EAB4
:1057B000E47493F900305C43A4EB090484FB0A4AC7
:1057C000E40B44EA4A44A144B34D1BF580322C68F3
:1057D0004FEAEB73A9EB040043F1000380FB0B01DC
:1057E000FCF766FA0444B4F5004FA8BF4FF4004438
:1057F000AA4BAB499C42B8BF1C462C608BFB0442B1
:10580000A4FB014301FB0233E60E46EA43160A9B62
:1058100006EBD67403EB6404240C04F5804080B2DC
:10582000FCF75CFC80FB0B53ED0B45EA43450C9BFE
:105830009C4F2B4420461D463B60FCF74FFC80FBF1
:105840000B43E40B44EA43440D9B6FF00F0C2344DD
:105850001C46954B954A1C600A9B4FEA25391E440D
:10586000ACEB253CA9F1F00316606FF007069C45F0
:10587000B8BF9C464FEA2438A6EB2436A8F148036B
:105880009E42B8BF1E46BCF1000F25DDBCF10E0FD5
:10589000A8BF4FF00E0C4FEAEC71C9030E22002393
:1058A0004FEACC3041EA5C41FCF702FAFCF740FCDD
:1058B0004FF05A0C8BFB0001A0FB0C0E00234FF4A1
:1058C00048120CFB01E1FCF7F3F919F1100F754BCD
:1058D000A8BF404205441D60002E734D1FDD0E2EF3
:1058E000A8BF0E26F117C9030E220023F00341EAD8
:1058F0005641FCF7DDF9FCF71BFC5A268BFB000137
:10590000A0FB060C4FF44812002306FB01C1FCF774
:10591000CFF918F1080FA8BF404204442C60386842
:10592000634BB0F5C81FA8BF4FF4C8102968984250
:10593000B8BF1846B1F5482FA8BF4FF4482103F56A
:1059400048239942B8BF194600264FF0110E594B13
:1059500029601C68584D5C441C60584B2A781B78A1
:10596000DFF85CC13860002B34D116B12A70534A7D
:105970001370544E3268A21AB2F5A04F3CD2039B6A
:10598000A3EB0B03039393E5029A9A423FF483AD92
:105990002E6804F1FA02801B3B4680FB040192B2A0
:1059A000FCF786F906442E6075E5474BA21A1A608B
:1059B000FCF7E0FB8CE501240E9A109BF1E59208C0
:1059C0007FE6A11899424FEA54049CBFA4185B1AC1
:1059D00092087AE60CEBC2077F68E71BB7F5902FB9
:1059E000C3D30132B2FBFEF606EB0616921B013B57
:1059F0000126D2B2DBB2B6E7112B34602A782F4EE3
:105A000008D10132B2FBF3F303EB0313D21A1023D4
:105A10002A7033701122284B35781B7800122B44E2
:105A2000B3FBF2F202EB02129B1A254A091222F88A
:105A30003300013502EBC3025180546035709EE79C
:105A4000089B224A1B5D5278134200F09880029B0B
:105A500095F85AE095F85B00AEEB0302039BC31A7E
:105A60005B4302FB0232424500F28C8040F28443E9
:105A7000C2EB0222B2FBF3F2D243D2B202FB022209
:105A8000C2F3072200210DF1AC0C22AF0DF1600A28
:105A900053E000BF751C00203C2B00200080FFFF5E
:105AA000AC1BDA01801C00207C1C0020781C00202C
:105AB0000000E7FF6C1C0020651C0020641C002017
:105AC000D81B0020681C0020701C0020B00E002095
:105AD0003CF902BB37F9023BA0EB0B0B0BFB0BFBBA
